:020000040000FA
:10000000B806202095010000990100005916000053
:1000100000000000000000000000000000000000E0
:100020000000000000000000000000009D01000032
:1000300000000000000000009F010000A10100007E
:10004000A3010000F5150000A3010000A3010000BA
:10005000A3010000A3010000A3010000A301000010
:1000600000000000A3010000A30100000000000048
:10007000000000008D2B0000A3010000A301000080
:10008000692B0000A3010000A3010000A3010000F0
:10009000A3010000A3010000000000000000000018
:1000A000A3010000A3010000000000000000000008
:1000B000A301000000000000A3010000A301000054
:1000C00000F002F800F057F812A030C808382418E1
:1000D0002D18AC4201D100F04EF80FCCA246AB4631
:1000E0000CA730CF2D1B083F3F197C427F1E544484
:1000F0002D090426F441641EAC4201D300F03BF804
:100100000126334200D0FB1A3343984754465D46DC
:10011000DFE70000FC2F00000C30000000000000B2
:100120007047000000000000002300240025002686
:10013000103A01D378C1FBD8520700D330C100D5A3
:100140000B60704710B5662902D102F06BFF10BD3D
:10015000732902D100F017FC10BD002010BD1FB59F
:1001600000F02EFC04000020002102F0EBFDE06016
:100170001FBD10B510BD01F037F81146FFF7EFFFB6
:1001800002F066FD01F04FF803B4FFF7F2FF03BC85
:1001900002F006FD06480047FEE7FEE7FEE7FEE741
:1001A000FEE7FEE703480449024A044B704700009B
:1001B000C1000000B8052020B8062020B805202086
:1001C0000FB4054910B503AA029800F0E1FB10BC7A
:1001D00008BC04B018470000EC042020F8B50E4617
:1001E0000446002020622046E1688847002829D084
:1001F000252802D06268A16820E0E1682046002737
:10020000884705001ED028464138192802D8012702
:10021000FF0220353246204627602946FFF792FF2D
:10022000002808D0012804D0F61DF608F60008368C
:10023000D9E7361DD7E762682846A1689047206A4B
:10024000401CCFE7206AF8BD70B50C460546012A70
:1002500005D02878800600D5EA69002302E0012352
:1002600005E05B1C934202D2E05C0028F9D1A8694A
:10027000E618C01AA861286AC01828622846C04635
:10028000C04604E06A682078A968641C9047B442BC
:10029000F8D32846C046C04670BD000010B50446DD
:1002A00003E002F0C3FC401C08D020780549641C20
:1002B0000028F6D10A2002F0B9FC10BD0020C0438E
:1002C00010BD0000EC042020002203098B4273D3F0
:1002D000030A8B4258D3030B8B423CD3030C8B4253
:1002E00021D312E003460B437FD4002243088B4204
:1002F00074D303098B425FD3030A8B4244D3030BAD
:100300008B4228D3030C8B420DD30902FF2212BA71
:10031000030C8B4202D31212090265D0030B8B42ED
:1003200019D300E0090AC30B8B4201D3CB03C01AD7
:100330005241830B8B4201D38B03C01A5241430BB2
:100340008B4201D34B03C01A5241030B8B4201D3A2
:100350000B03C01A5241C30A8B4201D3CB02C01A0D
:100360005241830A8B4201D38B02C01A5241430A85
:100370008B4201D34B02C01A5241030A8B4201D374
:100380000B02C01A5241CDD2C3098B4201D3CB011B
:10039000C01A524183098B4201D38B01C01A5241CA
:1003A00043098B4201D34B01C01A524103098B42CE
:1003B00001D30B01C01A5241C3088B4201D3CB00B9
:1003C000C01A524183088B4201D38B00C01A52419C
:1003D00043088B4201D34B00C01A5241411A00D24C
:1003E00001465241104670475DE0CA0F00D04942B5
:1003F000031000D3404253409C46002203098B4225
:100400002DD3030A8B4212D38901FC2212BA030AAC
:100410008B420CD3890192118B4208D3890192112E
:100420008B4204D389013AD0921100E08909C309B3
:100430008B4201D3CB01C01A524183098B4201D3B5
:100440008B01C01A524143098B4201D34B01C01AA0
:10045000524103098B4201D30B01C01A5241C30818
:100460008B4201D3CB00C01A524183088B4201D387
:100470008B00C01A5241D9D243088B4201D34B00A2
:10048000C01A5241411A00D20146524110466346F9
:100490005B1001D34042002B00D5494270476346B0
:1004A0005B1000D3404201B50449002802DC491C1E
:1004B000084000E00846C046C04602BDFFFFFF7F7F
:1004C00070477047704700000121C905012341189A
:1004D00042001B06D3185B0E0AD0C1100722D206B9
:1004E000891840075242D14201D5520089187047FD
:1004F000090208D50146002A03D0C10FC907002010
:10050000704710467047420202D0002002497047EF
:10051000072109050143F4E70000F87F0102C21535
:1005200004D00123DB071943002A0ADB9E239A1A11
:1005300002D40846D0407047FF2241001206914283
:1005400001D900207047C017C0437047FFB50C4663
:100550001E468FB003CA089009914F007D0D00D14F
:100560006D1E002108460020C0460321099A890516
:100570000840002A03DA8200801840080840800DF5
:1005800001280A9002DD0020C0430A900898074322
:100590000DD0F048F049281848430714189800284F
:1005A0001DD07542291E1DDD0A9842421BE0189895
:1005B000012802D00020302104E00020F24305E0B1
:1005C0002154401CB042FBDB30460022189B002126
:1005D00021540F998B600A60486013B0F0BDBD1BB9
:1005E0006D1CDFE70A9A002900DA69420BA800F0C7
:1005F00085FA0BAB07CB03AB07C30899099800F04A
:10060000E9FA6B4607C30146D4480918002D00914A
:100610000BDDD24903980A9A49424018002303A9E6
:100620000390684600F046FD08E003990A9A00230B
:10063000081803A90390684600F0E6FC6B4607C360
:100640000004000C03D00020C043410800E0104625
:10065000189A002A03D00022009215461EE0751E4B
:1006600005D400F0B1F9303262556D1EF9D5012282
:100670000843079602D000227F1C04E0207830282F
:1006800001D100227F1E002A069787D01EE0112D7F
:1006900007DA00F099F9303262556D1C02460A43C0
:1006A000F5D1084303D00098002819D00EE00021AE
:1006B000681E05E0235C625C63542254401E491CA2
:1006C0008142F7DBA81B401E07950690079A1899F0
:1006D0000020A0540F98079B069A81600CC07CE70D
:1006E00011260020189059E7D21DF0B50D4604469A
:1006F000D10893B0C90003C90C900D9102F0EAFA39
:1007000002460D98C00F01D02D2007E02068810718
:1007100001D52B2002E04007C00F4001032A0F90B3
:1007200001D0072A05DB03462946204600F0A2F93E
:100730000EE12078800601D5E76900E0062728460B
:10074000652D04D0662814D0672D69D12DE00020D6
:10075000112F009001DB112300E07B1C0CAA03A9E0
:1007600010A8FFF7F3FE1199002610987D1C0E913A
:1007700042E001203B460CAAC0070B9001200090EC
:1007800003A910A8FFF7E2FE119D12981099002608
:1007900000280E9501D1781C0D18781B02D4464212
:1007A0007D1C761EE81B00903AE0012F00DA01273D
:1007B0000020112F009001DD112300E03B460CAA20
:1007C00003A910A8FFF7C2FE11993D461098002614
:1007D0000E91217809070BD40E99A94200DA0D4633
:1007E00003A9012D04DD4A19203AD27F302A06D010
:1007F000B84201DA011D04DA012100910FE06D1EFB
:10080000EFE7002802DC86192D1A03E0411CA942FB
:1008100000DD0D46801B401C00900120C0070B909E
:100820002078000705D40098A84202DB0020C043CE
:10083000009069460020C8720B98012102AF03376F
:10084000C907884225D0022010902B2011900B98C8
:1008500000280BDA40420B902D20119006E00B98F7
:1008600000F07CFC30317F1E0B9039701099481ECF
:1008700000291090F3DC0B980028F0D111987F1E0E
:1008800038702088000501D5452000E065207F1ED6
:10089000387001A8C01BC01D0B900F98002800D015
:1008A000012041190098C01709180B980818A16970
:1008B000081A401EA0612078C00602D42046C04617
:1008C000C0460F98002805D06268A1689047206A4A
:1008D000401C20622078C00625D52046C046C04670
:1008E00021E0002E07DB0E98B04204DD03A8626809
:1008F000805DA16802E06268A16830209047206AAC
:10090000761C401C20620098401E002800900AD1EE
:1009100000F056F8C06862680168405CA1689047C2
:10092000206A401C206228466D1E0028D9DC07E0A2
:1009300062683878A1687F1C9047206A401C20625A
:100940000B99481E00290B90F2DC2046C046C04699
:10095000032042E601FCFFFF104D0000E1DFFFFF36
:1009600010B54369002B02D0C046C04601E0FFF736
:100970006BFC012010BD1278014624310A70002260
:100980004A700122ECE711680022D243E8E7000038
:10099000084B70B50D467B4400F059F804462846D4
:1009A00000F0D8FB002802D00020C04370BD2046D4
:1009B00070BD000093220000004870470000202016
:1009C00000487047200020200B4670B5024689077A
:1009D0008008084319469D08141AA94125090807EB
:1009E000054308092C194841250A01060D43010A4F
:1009F0002C194141200C0D0428430D0C00194D41C8
:100A0000002140194D41C00869070843E908840FD7
:100A10008D002543840024184D4124196D41121B7B
:100A2000AB4107E00925ED432C1152196341002425
:100A3000401C61411C460A250026551BB441F1D2D9
:100A400070BD000001694A1C02610878704700B55A
:100A50008FB00291002105910549019379440391DA
:100A6000114604906846FFF7B9FB0FB000BD0000C7
:100A7000E5FFFFFFF8B51F46044601230068DB02CF
:100A8000032601461840072A05DB002801D017A5D8
:100A900006E017A504E0002801D016A500E016A581
:100AA000102081432160A069C01E002FA06101D0E9
:100AB000401EA0612046C046C046002F09D03846DF
:100AC0006268A1689047206A401C2062C01C2062B6
:100AD00006E0206AFAE762682878A1686D1C9047F2
:100AE000761EF8D22046C046C046F8BD4E414E00A4
:100AF0006E616E00494E4600696E6600F7B5164697
:100B00008AB0334878446C4603467C33C06F5A68D9
:100B10009B680DC42E487844763003AC0DC80DC4D4
:100B20003720C001081837211B30FFF7DBFB0546D3
:100B30000C46803D1B3C02D56442012000E00020B1
:100B40000027099010E0E0070CD00C2020497843E2
:100B5000794432464C3941186846012300F054FA72
:100B60006B4607C364107F1C002CECD1184F7F44E8
:100B70002E3F16E0E80712D02001C0190EC80691DA
:100B8000089307920068F04201D198190890324604
:100B9000012306A903A800F037FA03AB07C36D10C1
:100BA000641C002DE6D10998002806D0324669461B
:100BB000012303A800F07EFA05E0012332466946CE
:100BC00003A800F021FA0A9B07C30DB0F0BD000096
:100BD0002C250000034640000A4610B5400D0BD0FE
:100BE0000121C9070F24A40200191C036408214332
:100BF000540D2143D20207E000210120F2E7D40F77
:100C0000490021435200401E0029F8DADB0FDB07C0
:100C1000184310BDFFB50D46144685B048685168AD
:100C200002F040F800910190A868A16802F03AF83B
:100C300002910390A868616802F034F8029A1218D1
:100C40008242029201D2012000E00020019A0B189A
:100C5000D2180028019202D08A4202D903E08A42C7
:100C600001D2012000E00020009908180090686877
:100C7000A16802F017F8029A12188242029201D279
:100C8000012000E00020019A0B18D21800280192E0
:100C900002D08A4202D903E08A4201D2012000E058
:100CA0000020009908180090286821684000490039
:100CB000400849084018FA49471814E001994000D3
:100CC000C90F08430090019802994000C90F0843DA
:100CD0000190029803994000C90F084302900398BD
:100CE00040007F1E039000980028E7DA089800284B
:100CF00001D0EC4E00E00026B74201DA012000E00E
:100D00000020002804902AD0F71BF806C00E15D04A
:100D1000029B2021091A039A8B401A430392029ADC
:100D2000019BC2408B401A430292019A009BC24031
:100D30008B4000991A430192C14000917B110DD064
:100D40006F460320C11A03D500218200B95003E089
:100D50008A008100BA587A50401EF3D5374603986E
:100D60000299002800D00120014308980291002830
:100D700008460CD0002800D001200199019A4905AD
:100D800008430121D20AC902D202019200E00121E6
:100D90000E9B0122D207012B02D0002B03D013E0BF
:100DA000002807D120E0904204D890420CD1019B4A
:100DB0000B4209D0019B5918019105D10099491C9A
:100DC000009101D17F1C009200280DD0102108460F
:100DD0000020C0460498002806D00F98002803D0B1
:100DE000082108460020C04628682168019B009A17
:100DF0004840C10F0598C90739430EC009B0F0BD7E
:100E0000FFB587B0099A08980899536892684068B6
:100E1000896896460022039317469446089A1268FA
:100E20005300099A5B081268520052089A1A9E4BA6
:100E3000D4180A9A002A01D0352200E040220692F6
:100E40000022012315460492DB07059324E0002DC0
:100E500005D175460346039E4D1BB34109D3754624
:100E60006646039B491B049D9841059B7519AC463A
:100E70005F4163463B4308D0059B049EDD0776082F
:100E80002E435B080496059301E0521E641EC50FB5
:100E9000ED0749184041521C069B9A42D7DB002DB2
:100EA00004D17546039A6B1A824101D203200CE0EB
:100EB000039A0B466B404240134303D0014303D0D7
:100EC000012002E0022000E00020614601910021A3
:100ED000009702910A99002905D06146400201431A
:100EE000704B019102E08007002302909C4201DADE
:100EF000012000E0002007003AD01A1BD006C00EE7
:100F000015D0029D2021019C091AC5408C40254323
:100F1000029C8C4000D001242543019C0295009D39
:100F2000C4408D4000992C430194C140009154115C
:100F30001DD06D460221002202290CD10320001B86
:100F400007E0002804DB8600AE59002E00D0012205
:100F5000401C0328F5DB081B02D588002A5004E05A
:100F60008000285810438A00A850491EE3D51C462B
:100F70000A98002802980CD0002800D0012001997E
:100F8000019A490508430121D20AC902D2020192FD
:100F900000E00121109B0122D207012B02D0002B7F
:100FA00003D013E0002807D11FE0904204D89042FC
:100FB0000CD1019B0B4209D0019B5918019105D11D
:100FC0000099491C009101D1641C009200280CD0AA
:100FD000102108460020C046002F06D01198002896
:100FE00003D0082108460020C04608980999019AB4
:100FF000009B006809684840C10F0798C907214352
:1010000082600AC00BB0F0BD00B585B001930092BC
:101010000A460146002302A8FFF7FCFD02A807C804
:1010200005B000BDFFB50A461F4685B0079901937C
:1010300001230091014602A8FFF7ECFD02990398F5
:10104000049ECA0F4900D20700920F22490892025B
:101050008C1A0021002800DB0C46450013486D085F
:10106000844214D3079A002A04DA441E0026104D45
:10107000F64302E004460D460E46102108460020C5
:10108000C046002F03D0042108460020C04620059A
:10109000E90A0843009908436905F20A1143ADE6DD
:1010A00002C0FFFF013C0000FF3F0000FF070000FF
:1010B000FFFFFF7F00B585B0019300920A4601460D
:1010C000002302A8FFF79CFE02A807C8A8E7FFB507
:1010D0000A461F4685B007990193012300910146F6
:1010E00002A8FFF78DFE02990398049ECA0F4900DB
:1010F000D20700920F22490892028C1A0021002880
:1011000000DB0C46450011486D08844214D3079A51
:10111000002A04DA441E00260D4DF64302E0044680
:101120000D460E46102108460020C046002F03D071
:10113000042108460020C0462005E90A084300991A
:1011400008436905F20A114358E60000FF07000052
:10115000FFFFFF7FC068802108407047014680087C
:10116000081A02091018020A1018020C1018C008F8
:10117000820012185200891A01E0401C0A390A291B
:10118000FBD2704710B5FF231B0644009C421DD8BC
:101190004C009C421AD80346124A0B4307D4401A0B
:1011A00002D3EFF3008010BDEFF3008010BD081AEA
:1011B00003D3EFF30080904305E0EFF300800121BB
:1011C0009043C907084380F3008810BD0D231B041A
:1011D0001A4204D01146002000F086F810BD00F03D
:1011E0009BF810BD000000907546FFF7E5FBAE468A
:1011F000050069465346C008C000854618B020B5B2
:10120000FEF7D0FF60BCB64600260027C0C5C0C5AB
:10121000C0C5C0C5C0C5C0C5C0C5C0C5403D4908E2
:1012200049008D46704710B50446C046C04620466A
:10123000FEF7AAFF10BD000082078B079A423FD13C
:1012400070B5920F0AD0032402780B78401C491C19
:10125000002A33D09A4231D12042F5D1214EF401F7
:1012600004C808C9951B9543254018D19A420FD14F
:1012700004C808C9951B9543254010D19A4207D14F
:1012800004C808C9951B9543254008D19A42E7D068
:1012900012BA1BBA01209A4200D2404270BD12BA63
:1012A0001BBA2DBA18241000E0401900E140401A82
:1012B00005D12E00E64002D1083CF4D1D01A70BD11
:1012C00002780B78401C491C002A09D09A4207D1A9
:1012D00002780B78401C491C002A01D09A42EFD0BA
:1012E000D01A704701010101C80212D54803400F0E
:1012F000002804D0C803C043012188407047EFF3A1
:1013000000800001000903210907084380F30088D9
:10131000704700207047000010B5024800F004F844
:1013200010BD00000000C07F10B50C461107090F6A
:10133000092904D00A290AD008290CD104E0114651
:101340000820FFF7D1FF06E0510606D501E051065F
:1013500001D50120C007214610BDD10607D50101E6
:101360000909CC084907000E0006044309E0410FB3
:1013700020024907000A0143200E00061D22D14128
:1013800001430846E7E7811E091F00BFFCD27047F2
:10139000F0B5664A8218294BC318087920280DD069
:1013A00000281DD10C68641E5460D56E244C254065
:1013B0008835D5661646703688251DE00C68641E93
:1013C0005460D46E1E4D2C401E4EA419D466146F6A
:1013D0002C40A4191467012465071B4C16460BE02A
:1013E0000C6864085460D66E154C26400525ED0146
:1013F0007619D66616467036376827402F43376011
:10140000D46A4C4D2C40D462146B2C4014630024DD
:10141000D46414658F24E443D56F2540D5671D68D7
:1014200025401D6049790143BD2008401168074BE4
:101430000B40C018801C1060F0BDC046841800002E
:1014400024F93FF001040000FFFFFFCF4000FFCF71
:10145000B0B5364A80184A6842600A78222A57D8BE
:10146000930001A4E3589F460715000011150000E2
:1014700007150000111500001115000011150000DE
:1014800011150000111500001115000011150000C4
:1014900011150000111500001115000011150000B4
:1014A0001115000011150000F514000011150000C1
:1014B000F5140000111500001115000011150000B1
:1014C0001115000011150000111500001115000084
:1014D0001115000011150000111500001115000074
:1014E0001115000011150000F51400001115000081
:1014F000F514000003231B0704689C4301235B07CA
:10150000E318036004E003231B0704689C430460A2
:101510000B69C360CB68064C1C40C36A054D1D4077
:101520002B19C362097A11430160B0BD0418000091
:10153000777702008888FDFF10B507239B041940C8
:1015400092008018024A84589C436118815010BD53
:101550003018000010B5029CA40000191143194373
:10156000014A815010BDC0465018000092008018FA
:10157000014A81507047C0461018000010B5012282
:10158000120383180C789C604B7883508978014A49
:10159000815010BD0C110000B0B511221202835809
:1015A0000124A34383508B780C881C438B882343EE
:1015B000094C1C408358094D1D402B1983508B79D1
:1015C000CC791C43097A21437E2319408018426854
:1015D0009A4351184160B0BD18670000E798FDFFBD
:1015E00010B50122120383180C789C604978815051
:1015F00010BD0000F0B50020C14313480246103A68
:1016000013689A05114A02D45B070FD4F0BD012577
:101610006C021668F60500D50D460D4E37687D192B
:1016200035600568254305605B07EFD51268120732
:1016300000D40121074A1368591811600168042277
:101640000A430260F0BDC04648300A4080330A4079
:10165000E80420206000202080B502A0FEF71EFED6
:1016600080BDC046656E747279204572726F7221BA
:101670002121210D0000000070B5044600252846F8
:10168000294600F0CDFF7F20C6052046314601F0F7
:1016900042FB002809D00121304600F0C1FF0020A4
:1016A000014600F0D3FF344615E02046294601F0FC
:1016B0003DFB0028284600D12046012100F0B0FF64
:1016C0002846294600F0C2FF2046294601F018FBB3
:1016D000002800D100240121204600F0B7FF70BD92
:1016E000B0B502480346F833802401E064002020AE
:1016F000002119701A46083A11701A46103A1170F2
:101700001A46183A11701A46203A11701A46283AA9
:1017100011701A46303A11701A46383A11701A464A
:10172000403A11701A46483A11701A46503A1170F0
:101730001A46583A11701A46603A11701A46683AB9
:1017400011701A46703A11701A46783A11701A469A
:10175000803A11701A46883A11701A46903A117000
:101760001A46983A11701A46A03A11701A46A83AC9
:1017700011701A46B03A11701A46B83A11701A46EA
:10178000C03A11701A46C83A11701A46D03A117010
:101790001A46D83A11701A46E03A11701A46E83AD9
:1017A00011701A46F03A11701A46F83A1170012277
:1017B00012029B18203C9BD10446F93480232170EF
:1017C0002546083D29702546103D29702546183DBF
:1017D00029702546203D29702546283D297025463B
:1017E000303D29702546383D29702546403D2970F9
:1017F0002546483D29702546503D29702546583DCF
:1018000029702546603D29702546683D297025468A
:10181000703D29702546783D29702546803D297008
:101820002546883D29702546903D29702546983DDE
:1018300029702546A03D29702546A83D29702546DA
:10184000B03D29702546B83D29702546C03D297018
:101850002546C83D29702546D03D29702546D83DEE
:1018600029702546E03D29702546E83D297025462A
:10187000F03D2970A518F83C2170203B2C469ED1E4
:101880000446FA34802321702546083D29702546F8
:10189000103D29702546183D29702546203D2970A8
:1018A0002546283D29702546303D29702546383D7E
:1018B00029702546403D29702546483D297025461A
:1018C000503D29702546583D29702546603D2970B8
:1018D0002546683D29702546703D29702546783D8E
:1018E00029702546803D29702546883D297025466A
:1018F000903D29702546983D29702546A03D2970C8
:101900002546A83D29702546B03D29702546B83D9D
:1019100029702546C03D29702546C83D29702546B9
:10192000D03D29702546D83D29702546E03D2970D7
:101930002546E83D29702546F03D2970A518F83C5C
:101940002170203B2C469ED10446FB34802321701D
:101950002546083D29702546103D29702546183D2D
:1019600029702546203D29702546283D29702546A9
:10197000303D29702546383D29702546403D297067
:101980002546483D29702546503D29702546583D3D
:1019900029702546603D29702546683D29702546F9
:1019A000703D29702546783D29702546803D297077
:1019B0002546883D29702546903D29702546983D4D
:1019C00029702546A03D29702546A83D2970254649
:1019D000B03D29702546B83D29702546C03D297087
:1019E0002546C83D29702546D03D29702546D83D5D
:1019F00029702546E03D29702546E83D2970254699
:101A0000F03D2970A518F83C2170203B2C469ED152
:101A10000446FC34802321702546083D2970254664
:101A2000103D29702546183D29702546203D297016
:101A30002546283D29702546303D29702546383DEC
:101A400029702546403D29702546483D2970254688
:101A5000503D29702546583D29702546603D297026
:101A60002546683D29702546703D29702546783DFC
:101A700029702546803D29702546883D29702546D8
:101A8000903D29702546983D29702546A03D297036
:101A90002546A83D29702546B03D29702546B83D0C
:101AA00029702546C03D29702546C83D2970254628
:101AB000D03D29702546D83D29702546E03D297046
:101AC0002546E83D29702546F03D2970A518F83CCB
:101AD0002170203B2C469ED10446FD34802321708A
:101AE0002546083D29702546103D29702546183D9C
:101AF00029702546203D29702546283D2970254618
:101B0000303D29702546383D29702546403D2970D5
:101B10002546483D29702546503D29702546583DAB
:101B200029702546603D29702546683D2970254667
:101B3000703D29702546783D29702546803D2970E5
:101B40002546883D29702546903D29702546983DBB
:101B500029702546A03D29702546A83D29702546B7
:101B6000B03D29702546B83D29702546C03D2970F5
:101B70002546C83D29702546D03D29702546D83DCB
:101B800029702546E03D29702546E83D2970254607
:101B9000F03D2970A518F83C2170203B2C469ED1C1
:101BA0000446FE34802321702546083D29702546D1
:101BB000103D29702546183D29702546203D297085
:101BC0002546283D29702546303D29702546383D5B
:101BD00029702546403D29702546483D29702546F7
:101BE000503D29702546583D29702546603D297095
:101BF0002546683D29702546703D29702546783D6B
:101C000029702546803D29702546883D2970254646
:101C1000903D29702546983D29702546A03D2970A4
:101C20002546A83D29702546B03D29702546B83D7A
:101C300029702546C03D29702546C83D2970254696
:101C4000D03D29702546D83D29702546E03D2970B4
:101C50002546E83D29702546F03D2970A518F83C39
:101C60002170203B2C469ED1FF308023017004461A
:101C7000083C21700446103C21700446183C217039
:101C80000446203C21700446283C21700446303C28
:101C900021700446383C21700446403C21700446C3
:101CA000483C21700446503C21700446583C217049
:101CB0000446603C21700446683C21700446703C38
:101CC00021700446783C21700446803C2170044613
:101CD000883C21700446903C21700446983C217059
:101CE0000446A03C21700446A83C21700446B03C48
:101CF00021700446B83C21700446C03C2170044663
:101D0000C83C21700446D03C21700446D83C217068
:101D10000446E03C21700446E83C21700446F03C57
:101D200021708418F8380170203B20469ED100F0C5
:101D30009FFBB0BDF0B581B0AE200024214600F07D
:101D400011FC2046214600F00DFC1020214600F039
:101D500009FC40273846214600F004FC812021463A
:101D600000F000FCCF20214600F0FCFBA120214622
:101D700000F0F8FBC820214600F0F4FBA626304610
:101D8000214600F0EFFBA820214600F0EBFB3F20AE
:101D9000214600F0E7FBD320214600F0E3FB20467C
:101DA000214600F0DFFBD520214600F0DBFB80253B
:101DB0002846214600F0D6FBD920214600F0D2FB70
:101DC000F120214600F0CEFBDA20214600F0CAFBCC
:101DD0001220214600F0C6FBDB20214600F0C2FBAA
:101DE0003846214600F0BEFB2020214600F0BAFB19
:101DF0000220214600F0B6FB8D20214600F0B2FB08
:101E00001420214600F0AEFBA420214600F0AAFBDE
:101E10003046214600F0A6FB01480246F83201E0B8
:101E2000640020201470114608390C7011461039D6
:101E30000C70114618390C70114620390C7011467F
:101E400028390C70114630390C70114638390C7035
:101E5000114640390C70114648390C701146503902
:101E60000C70114658390C70114660390C701146CF
:101E700068390C70114670390C70114678390C7045
:101E8000114680390C70114688390C701146903912
:101E90000C70114698390C701146A0390C7011461F
:101EA000A8390C701146B0390C701146B8390C7055
:101EB0001146C0390C701146C8390C701146D03922
:101EC0000C701146D8390C701146E0390C7011466F
:101ED000E8390C701146F0390C701146F8390C7065
:101EE000012109025218203D9CD10346F93380227A
:101EF0001C701D46083D2C701D46103D2C701D4663
:101F0000183D2C701D46203D2C701D46283D2C7020
:101F10001D46303D2C701D46383D2C701D46403D01
:101F20002C701D46483D2C701D46503D2C701D46A2
:101F3000583D2C701D46603D2C701D46683D2C7030
:101F40001D46703D2C701D46783D2C701D46803D11
:101F50002C701D46883D2C701D46903D2C701D46F2
:101F6000983D2C701D46A03D2C701D46A83D2C7040
:101F70001D46B03D2C701D46B83D2C701D46C03D21
:101F80002C701D46C83D2C701D46D03D2C701D4642
:101F9000D83D2C701D46E03D2C701D46E83D2C7050
:101FA0001D46F03D2C705D18F83B1C70203A2B4606
:101FB0009ED10346FA3380221C701D46083D2C70CA
:101FC0001D46103D2C701D46183D2C701D46203DB1
:101FD0002C701D46283D2C701D46303D2C701D4632
:101FE000383D2C701D46403D2C701D46483D2C70E0
:101FF0001D46503D2C701D46583D2C701D46603DC1
:102000002C701D46683D2C701D46703D2C701D4681
:10201000783D2C701D46803D2C701D46883D2C70EF
:102020001D46903D2C701D46983D2C701D46A03DD0
:102030002C701D46A83D2C701D46B03D2C701D46D1
:10204000B83D2C701D46C03D2C701D46C83D2C70FF
:102050001D46D03D2C701D46D83D2C701D46E03DE0
:102060002C701D46E83D2C701D46F03D2C705D180F
:10207000F83B1C70203A2B469ED10346FB3380224E
:102080001C701D46083D2C701D46103D2C701D46D1
:10209000183D2C701D46203D2C701D46283D2C708F
:1020A0001D46303D2C701D46383D2C701D46403D70
:1020B0002C701D46483D2C701D46503D2C701D4611
:1020C000583D2C701D46603D2C701D46683D2C709F
:1020D0001D46703D2C701D46783D2C701D46803D80
:1020E0002C701D46883D2C701D46903D2C701D4661
:1020F000983D2C701D46A03D2C701D46A83D2C70AF
:102100001D46B03D2C701D46B83D2C701D46C03D8F
:102110002C701D46C83D2C701D46D03D2C701D46B0
:10212000D83D2C701D46E03D2C701D46E83D2C70BE
:102130001D46F03D2C705D18F83B1C70203A2B4674
:102140009ED10346FC3380221C701D46083D2C7036
:102150001D46103D2C701D46183D2C701D46203D1F
:102160002C701D46283D2C701D46303D2C701D46A0
:10217000383D2C701D46403D2C701D46483D2C704E
:102180001D46503D2C701D46583D2C701D46603D2F
:102190002C701D46683D2C701D46703D2C701D46F0
:1021A000783D2C701D46803D2C701D46883D2C705E
:1021B0001D46903D2C701D46983D2C701D46A03D3F
:1021C0002C701D46A83D2C701D46B03D2C701D4640
:1021D000B83D2C701D46C03D2C701D46C83D2C706E
:1021E0001D46D03D2C701D46D83D2C701D46E03D4F
:1021F0002C701D46E83D2C701D46F03D2C705D187E
:10220000F83B1C70203A2B469ED10346FD338022BA
:102210001C701D46083D2C701D46103D2C701D463F
:10222000183D2C701D46203D2C701D46283D2C70FD
:102230001D46303D2C701D46383D2C701D46403DDE
:102240002C701D46483D2C701D46503D2C701D467F
:10225000583D2C701D46603D2C701D46683D2C700D
:102260001D46703D2C701D46783D2C701D46803DEE
:102270002C701D46883D2C701D46903D2C701D46CF
:10228000983D2C701D46A03D2C701D46A83D2C701D
:102290001D46B03D2C701D46B83D2C701D46C03DFE
:1022A0002C701D46C83D2C701D46D03D2C701D461F
:1022B000D83D2C701D46E03D2C701D46E83D2C702D
:1022C0001D46F03D2C705D18F83B1C70203A2B46E3
:1022D0009ED10346FE3380221C701D46083D2C70A3
:1022E0001D46103D2C701D46183D2C701D46203D8E
:1022F0002C701D46283D2C701D46303D2C701D460F
:10230000383D2C701D46403D2C701D46483D2C70BC
:102310001D46503D2C701D46583D2C701D46603D9D
:102320002C701D46683D2C701D46703D2C701D465E
:10233000783D2C701D46803D2C701D46883D2C70CC
:102340001D46903D2C701D46983D2C701D46A03DAD
:102350002C701D46A83D2C701D46B03D2C701D46AE
:10236000B83D2C701D46C03D2C701D46C83D2C70DC
:102370001D46D03D2C701D46D83D2C701D46E03DBD
:102380002C701D46E83D2C701D46F03D2C705D18EC
:10239000F83B1C70203A2B469ED1FF3080220470FF
:1023A0000346083B1C700346103B1C700346183B59
:1023B0001C700346203B1C700346283B1C700346E0
:1023C000303B1C700346383B1C700346403B1C707E
:1023D0000346483B1C700346503B1C700346583B69
:1023E0001C700346603B1C700346683B1C70034630
:1023F000703B1C700346783B1C700346803B1C708E
:102400000346883B1C700346903B1C700346983B78
:102410001C700346A03B1C700346A83B1C7003467F
:10242000B03B1C700346B83B1C700346C03B1C709D
:102430000346C83B1C700346D03B1C700346D83B88
:102440001C700346E03B1C700346E83B1C700346CF
:10245000F03B1C704318F8380470203A18469ED19F
:1024600000F006F8AF20002100F07CF801B0F0BDCC
:10247000F0B585B000203A4F02905038C0B2002429
:10248000214600F06FF82046214600F06BF810203E
:10249000214600F067F802255948056001260660CC
:1024A0000A24204600F0A0FB55480561204600F0B4
:1024B0009BFB53480661204600F096FB782000F015
:1024C000C9FA4F480560204600F08EFB4C48066074
:1024D000204600F089FB4A480661204600F084FB54
:1024E000402000F0B7FA049545480560204600F00A
:1024F0007BFB434806600546204600F075FB0396CB
:102500002E61204600F070FB80260197387800F09D
:10251000A1FA3B49049808600A24204600F064FBB5
:10252000039D37480560204600F05EFB3448056196
:10253000204600F059FB761E0837002EE6D1304CBD
:10254000049D2561039820600A2000F04DFB256062
:10255000019F7F1C0298401C08288DD105B0F0BD5A
:1025600064002020F0B583B001910290244F022630
:102570003E6001253D600A24204600F035FB3E61A7
:10258000204600F031FB3D61204600F02DFB782015
:1025900000F060FA3E60204600F026FB3D602046D9
:1025A00000F022FB3D61204600F01EFB0199481E11
:1025B0008141880100F04EFA3E60204600F014FB95
:1025C0003D60204600F010FB3D61204600F00CFB12
:1025D000029800F03FFA3E60204600F005FB3D60A7
:1025E000204600F001FB3D61204600F0FDFA3E610F
:1025F0003D60204600F0F8FA3E6003B0F0BDC046F2
:1026000090120A4080B500F0DBF901204003024936
:1026100008600249086080BD80E200E000E100E05F
:10262000B0B5012911D80C46134900F0A1FB134D98
:10263000294600F037FC294600F09AFBFDF76EFFB3
:1026400001465D482246FEF791FFB0BDB0B50129B5
:1026500011D80C46084900F08BFB084D294600F0C4
:1026600021FC294600F084FBFDF758FF0146714824
:102670002246FEF77BFFB0BD000080BF00007A4518
:1026800070B5284B852018600124A00326490860F6
:102690008420D8646006086086209862600508601F
:1026A0008820D862A0050860204D82222A65204833
:1026B000461C6E65AA64EE641E4A1A661E4A1A61BA
:1026C00081222A606A60A863E863686628665862A7
:1026D0001862186318640B46303BE4061C600B4616
:1026E000403B03251D60E31C0B6014490B6810245C
:1026F0001C430C6001468139114B1C6A0C431C625F
:102700001C680C431C6071380E490B6803430B6056
:1027100090000D490A6A02430A620A6802430A608D
:1027200070BDC04690804240D0120A4004804240B2
:10273000810004008100010081000500A0130A400F
:1027400028100A4090330A4028300A40F0B581B082
:10275000194C1A492046FEF711FF19492046FEF789
:1027600017FE00250095204629462A462B46FEF7EF
:10277000F1FE204629462A46FEF7DEFE304E204670
:1027800031462A46FEF7F2FE0127009720462946E9
:102790002A462B46FEF7DEFE204629463A46FEF73D
:1027A000CBFE204631463A46FEF7E0FE05488760FC
:1027B0000321016001B0F0BD00808640C8300000F8
:1027C000CC30000000918640F0B581B0194C1A4918
:1027D0002046FEF7D3FE19492046FEF7D9FD002515
:1027E0000095204629462A462B46FEF7B3FE204692
:1027F00029462A46FEF7A0FE114E204631462A46BB
:10280000FEF7B4FE01270097204629462A462B46AC
:10281000FEF7A0FE204629463A46FEF78DFE2046EA
:1028200031463A46FEF7A2FE064887600321016062
:1028300001B0F0BD00008740D4300000D830000067
:10284000AF040000001187400C4800210160032004
:10285000C1430B480246083A13680B4013600168F5
:10286000012291430160110203688B43036011034D
:10287000001F02680A4302607047C04608030B400D
:1028800008010B400548042101601F21416000211F
:102890008160016805220A430260704710E000E091
:1028A00010B5084C08492046FEF768FE0749204647
:1028B000FEF7CEFD0648016801221143016005487C
:1028C000026010BD00400840E0300000E43000002D
:1028D0002850084008510840B0B5174C1749204609
:1028E000FEF77EFE16492046FEF756FE0320C10382
:1028F000144802688A43026002692F490A40921C08
:10290000026142690B2313433422934343614368BA
:102910000122134044689443E318436093020A4C35
:1029200025681D432560FF31084B1C680C401C6066
:10293000016811430160B0BD00001040F830000094
:10294000FA30000000111040281010400CE400E0A4
:1029500010B5154C15492046FEF742FE1449204695
:10296000FEF71AFE0320C103124802688A43026080
:102970000169114A0A4011320261416917220A4372
:1029800028218A43426141680122114043689343F0
:10299000591841609102094B1C680C431C60016886
:1029A0001143016010BDC04600801040043100009A
:1029B00006310000009110400000FFFF28901040F9
:1029C00080B500F017F8FFF75BFEFFF73DFFFFF75C
:1029D000FBFEFFF7BBFEFFF763FFFFF7B9FFFFF753
:1029E0007BFFFFF74FFF7420014900220A5480BD8E
:1029F00040052020F0B581B00D480E4941600E4AD7
:102A000051600E4B59600E4C61600E4D69600E4E68
:102A100071600E4F79600E4901601160196021608C
:102A20002960316039601020FEF7ADFC01B0F0BDC7
:102A300000080A40030000B100280A40000887404F
:102A40000088864000480840008810400008104078
:102A500001000026F0B581B0044640B2414E002886
:102A600002D40220306101E0022030600A252846AD
:102A700000F0BAF801273760284600F0B5F8376152
:102A8000600602D40220306101E0022030600A2595
:102A9000284600F0A9F83760284600F0A5F837610D
:102AA000A00602D40220306101E0022030600A2535
:102AB000284600F099F83760284600F095F837610D
:102AC000E00602D40220306101E0022030600A25D5
:102AD000284600F089F83760284600F085F837610D
:102AE000200702D40220306101E0022030600A2574
:102AF000284600F079F83760284600F075F837610D
:102B0000600702D40220306101E0022030600A2513
:102B1000284600F069F83760284600F065F837610C
:102B2000A00702D40220306101E0022030600A25B3
:102B3000284600F059F83760284600F055F837610C
:102B4000E00702D10220306101E0022030600A2457
:102B5000204600F049F83760204600F045F837611C
:102B600001B0F0BD90120A4005480068C0B20128CB
:102B700004D1044800210160034801607047C04649
:102B80002050084060002020E80420204248002116
:102B9000016002484168C9B20160704720111040CD
:102BA0007047000080B5FFF70BFF0120C003044908
:102BB00008600449086004A0FDF770FB80BDC046B2
:102BC00080E200E000E100E0426F61726420496E43
:102BD0006974205B5B202A2A204C434B4642202A02
:102BE0002A205D5D0D000000B0B50F490B68400163
:102BF000262206E0E41A0D1F2D686419A2188242ED
:102C000010D21C460B68A34208D10B68A34205D121
:102C10000B68A34202D10B68A342F3D09C42E9D9CE
:102C2000E41AEBE7B0BDC04618E000E007490A68C7
:102C3000D20708D00A68D20705D00A68D20702D0A6
:102C40000A68D207F3D1C2B28A6170470891104076
:102C5000FFF7B6FEFFF7A6FFFFF76CF8FEF740FDA3
:102C6000FFF7D0FC01200004094908600949086009
:102C700002200860084D09A42868FEF7FDFC2868BA
:102C8000FDF722FC024620460B46FDF799FAF3E7D2
:102C900080E200E000E100E0E404202025660D0A67
:102CA00000000000F8B5040C8BB2264682B25E43E9
:102CB000104658430D0C370C360400218019164677
:102CC00079416E43370C36048019264679416E43AC
:102CD0008919F8BD4900CA020243100000D004203F
:102CE0004A0D01D001221043044A490D914201D1FD
:102CF00002210843012800D105207047FF0700008A
:102D000010B500F07BF8EFF30080800001D50120C2
:102D100010BD002010BD10B500F070F8EFF300807A
:102D20004000800F012800D0002010BD10B500F039
:102D30008FF8EFF30080800001D4012010BD002047
:102D400010BD000010B500290AD00878002807D06F
:102D500005487844FEF770FA002801D0002010BD25
:102D60000248784410BD0000CE030000C6030000F6
:102D700070B50125ED0704004C4020D4441A01D25F
:102D8000001B0919C60D4B00F2B2FF2A29D01B0EF9
:102D90002CD000020C0228432C43D31ADC40051926
:102DA00010D2280A02D3401C6D0611D0761EF605FB
:102DB0008019FF2A00DA70BDC00DC00570BD6940E2
:102DC00000F0CEF801200543C541521C761CE8E70F
:102DD00064089C40C90161408900E7D10124A043F7
:102DE000E4E71B0E440200D0034870BD002AFCD16A
:102DF000C00FC00770BD00BF0000C07F0123DB050E
:102E000002000A430DD4DA4203D49A4207D488421E
:102E10007047D84214D4D94212D4884270478042B5
:102E20007047DA4203D59A42F9D5814270475B0078
:102E30004200DA4204D24A00DA4201D281427047AB
:102E400010B5024AFEF79EF910BD00BF0900130439
:102E50000123DB0502000A430DD4DA4203D49A426F
:102E600007D488427047D84214D4D94212D4884239
:102E7000704780427047DA4203D59A42F9D58142C1
:102E800070475B004200DA4204D24A00DA4201D2C3
:102E90008142704710B5024AFEF774F910BD00BFB9
:102EA0000900160470B5420064414B005C41120EEB
:102EB00039D01B0E38D0FF2A3CD0FF2B3AD0D21885
:102EC0007F3A40024902400A490A4518ED010600CE
:102ED0004E43000A090A48430104731A4019190CA9
:102EE0004318990F04D05B08012149075B1A521C53
:102EF000D80904D3401CF50301D19D0607D0FF2A51
:102F000008D2D50506D0E4072043401970BD01253D
:102F1000A843F4E7002A01DCE00770BD2402FF208B
:102F20002043C00570BD1B0EFF2A03D0FF2B01D02C
:102F3000E00770BDFF2636064500B54206D84D00B5
:102F4000B54203D8D218FF2A00D0E7E7004870BD89
:102F50000000C07F70B50125ED0704004C4022D46D
:102F6000441A02D26C40001B0919C60D4B00F2B284
:102F7000FF2A4BD01B0E50D000020C02A8432C435A
:102F8000D31ADC40051B05D5AD0019D36D08761E9C
:102F9000521E37D0F605280A01D2801970BD704143
:102FA0006D0603D070BD6940FFF7E8FE9C40090242
:102FB0006140490001D0401E70BD0124A04370BD96
:102FC0006D081DD001202B0C01D12D0410302B0ECB
:102FD00001D12D0208302B0F01D12D01001DAB0FA7
:102FE00001D1AD00801CEB0F01D16D00401C361AE1
:102FF000121A6D00680AF5054019012A02DB70BD3E
:10300000002070BDC036300AC00770BD1B0E4402E0
:1030100001D1FF2B00D1024870BD002AF0D070BD55
:103020000000C07F03B402487844844603BC604774
:10303000BDD6FFFF02400000000000A0000000001D
:1030400005400000000000C8000000000C40000027
:103050000000409C00000000194000000020BCBEA1
:103060000000000034400000BFC91B8E00000004B7
:10307000B5400000504BCFD06607E2CF0100000002
:103080006C4100003E8251AADFEEA734010000002F
:10309000D9420000DCB5A0E23A301F97FFFFFFFFE6
:1030A000B4450000FD25A0C8E9A3C14FFFFFFFFF05
:1030B000FF3F00000000008000000000FF3F000014
:1030C000000000800000000008070000A00F0000C2
:1030D0000001000008070000A00F00000001000030
:1030E0000807FF00020000001A06000001000000AF
:1030F00000000000000000000400000018000000B4
:10310000003000000800000018000000003000003F
:103110003C31000000002020B8060000280100001B
:103120001C00000043000000F8FFFFFF0C0000003F
:0C3130000E0000000F0000002E00000048
:04000005000000C136
:00000001FF
