:020000040000FA
:1000000018082020B9010000BD010000B10A00005D
:1000100000000000000000000000000000000000E0
:10002000000000000000000000000000C10100000E
:100030000000000000000000C3010000C501000036
:10004000C70100004D0A0000C7010000C701000001
:10005000C7010000C7010000C7010000C701000080
:1000600000000000C7010000C70100000000000000
:1000700000000000791F0000C70100001D1F0000E4
:10008000F91E0000C7010000C7010000C701000001
:10009000C7010000C70100000000000000000000D0
:1000A000C7010000C70100000000000000000000C0
:1000B000C701000000000000C7010000C7010000E8
:1000C00000F002F800F068F812A030C808382418D0
:1000D0002D18AC4201D100F05FF80FCCA246AB4620
:1000E0000CA730CF2D1B083F3F197C427F1E544484
:1000F0002D090426F441641EAC4201D300F04CF8F3
:100100000126334200D0FB1A3343984754465D46DC
:10011000DFE700006C2000008C20000000000000E1
:10012000103A02D378C878C1FAD8520701D330C840
:1001300030C101D504680C60704700000000000069
:100140007047000000000000002300240025002666
:10015000103A01D378C1FBD8520700D330C100D583
:100160000B60704710B5642902D100F0A9F810BDEA
:10017000732902D100F079F910BD002010BD1FB520
:1001800000F0B8FA04000020002101F0BDFF401C7F
:1001900060601FBD10B510BD00F08CFA1146FFF76E
:1001A000EEFF01F099FF00F0B8FA03B4FFF7F2FF99
:1001B00003BC01F039FF000006480047FEE7FEE7F8
:1001C000FEE7FEE7FEE7FEE703480449024A044B68
:1001D00070470000C10000001807202018082020E8
:1001E000180720200FB4054910B503AA029800F0A3
:1001F00041F910BC08BC04B018470000F0042020EE
:10020000F8B50E460446002020622046E168884783
:10021000002829D0252802D06268A16820E0E16882
:1002200020460027884705001ED028464138192857
:1002300002D80127FF022035324620462760294692
:10024000FFF790FF002808D0012804D0F61DF6081B
:10025000F6000836D9E7361DD7E762682846A16858
:100260009047206A401CCFE7206AF8BD70B50C4665
:100270000546012A05D02878800600D5EA690023C2
:1002800002E0012305E05B1C934202D2E05C0028FF
:10029000F9D1A869E618C01AA861286AC0182862AE
:1002A0002846C046C04604E06A682078A968641CF5
:1002B0009047B442F8D32846C046C04670BD0000FF
:1002C000F7B5002575291068009914A611D0C0460D
:1002D000C046002802DA404211A608E000990968E9
:1002E0008A0701D50FA602E0490704D50EA601250D
:1002F00001E0C046C046009F0024243704E000F01F
:1003000029F930313955641C0028F8D12B46324682
:100310002146009800F03EF8FEBD000000000000FD
:100320002D0000002B0000002000000070B50646E4
:1003300000F02CF80468054630460A22002100F03F
:10034000ADF82C6070BD000010B5044603E001F06C
:10035000B1FE401C08D020780549641C0028F6D165
:100360000A2001F0A7FE10BD0020C04310BD000010
:10037000F004202010B5024A00F0C8F810BD0000BB
:100380000000202070477047704700000048704709
:1003900008002020FFB504460D4681B024300090AF
:1003A0002168880604D51022E0699143216000E0AD
:1003B0000120A84201DD471B00E000270498A16945
:1003C0007A191018081AA0612078C00602D42046B5
:1003D000C046C046002608E003986268A168805DB8
:1003E0009047206A401C761C206204988642F3DB0A
:1003F0002078C0060AD52046C046C04606E062689E
:10040000A16830209047206A401C206238467F1E39
:100410000028F4DC07E000986268A168405D90471E
:10042000206A401C206228466D1E0028F3DC20460E
:10043000C046C0462078000602D5022005B0F0BDB7
:100440000120FBE710B54369002B02D0C046C0462F
:1004500001E0FFF70BFF012010BD127801462431A7
:100460000A7000224A700122ECE711680022D24390
:10047000E8E70000084B70B50D467B4400F08FF8AC
:100480000446284600F0F1F8002802D00020C043BE
:1004900070BD204670BD0000371C0000F7B50F4648
:1004A0000026009C2578641C002D05D000F06AF819
:1004B0000068405DC007F5D12B2D02D02D2D18D03E
:1004C000641E3946029A204600F07CF8002F04D0C2
:1004D0003968A14201D100993960710502240029CF
:1004E0000BDA4042002803DDFFF750FF0460A0074D
:1004F000FEBD012080020643E3E70028F8DAFFF79B
:1005000045FF04600048FEBDFFFFFF7FF8B51546BC
:100510000E46040003D12C68002C00D10CA4204608
:1005200000F0B8F80419207800280ED0274631468C
:10053000384600F09EF804192078002802D00020E8
:100540002070641C38462C60F8BD0027FAE70000D4
:100550000000000001468008081A02091018020A6B
:100560001018020C1018C008820012185200891AC4
:1005700001E0401C0A390A29FBD270470048704745
:100580000800202010B500F0B5F8001D10BD00BF18
:10059000791B000001694A1C02610878704700B5A8
:1005A0008FB002910021059105490193794403918F
:1005B000114604906846FFF723FE0FB000BD00000F
:1005C000E5FFFFFFF7B5154682B00027029C2078B3
:1005D000641C0197302802D0002D15D015E020783A
:1005E0000127641C782804D0582802D0002D09D097
:1005F0000BE0002D01D0102D07D120780027102509
:10060000641C02E0082500E00A250026009610E0A0
:10061000009901276943081829467143020C80B2EA
:1006200000908E183804864201D301200190207872
:10063000641C294600F062F80028E9DA03980028D3
:1006400005D0002F01D0641E00E0029C04600198D8
:10065000002806D0FFF79AFE02210160C81E05B0EF
:10066000F0BD009930040843F9E7C06880210840D4
:10067000704730B503461D78002D03D00A4603E0CD
:10068000AC4201D1181A30BD1478521C002CF7D19D
:100690005B1CF0E730B503461D78002D08D00A46F4
:1006A0001478521C002C03D0AC42F9D15B1CF3E748
:1006B000181A30BD7546FFF761FFAE460500694662
:1006C0005346C008C000854618B020B5FFF77CFD32
:1006D00060BCB64600260027C0C5C0C5C0C5C0C5A1
:1006E000C0C5C0C5C0C5C0C5403D490849008D460C
:1006F0007047000000487047280020203A2800D2A8
:100700003038202302469A43412A01D31046373815
:10071000884201D30020C043704710B50446C0464C
:10072000C0462046FFF741FD10BD000082078B0741
:100730009A423FD170B5920F0AD0032402780B7809
:10074000401C491C002A33D09A4231D12042F5D1B5
:10075000214EF40104C808C9951B9543254018D1C2
:100760009A420FD104C808C9951B9543254010D162
:100770009A4207D104C808C9951B9543254008D162
:100780009A42E7D012BA1BBA01209A4200D24042E4
:1007900070BD12BA1BBA2DBA18241000E04019001F
:1007A000E140401A05D12E00E64002D1083CF4D1C8
:1007B000D01A70BD02780B78401C491C002A09D061
:1007C0009A4207D102780B78401C491C002A01D0BC
:1007D0009A42EFD0D01A704701010101811E091F12
:1007E00000BFFCD270470000F0B5664A8218294B62
:1007F000C318087920280DD000281DD10C68641E6C
:100800005460D56E244C25408835D5661646703622
:1008100088251DE00C68641E5460D46E1E4D2C406B
:100820001E4EA419D466146F2C40A4191467012419
:1008300065071B4C16460BE00C6864085460D66EC6
:10084000154C26400525ED017619D66616467036FC
:10085000376827402F433760D46A4C4D2C40D46210
:10086000146B2C4014630024D46414658F24E44377
:10087000D56F2540D5671D6825401D604979014326
:10088000BD2008401168074B0B40C018801C106049
:10089000F0BDC0468418000024F93FF001040000B8
:1008A000FFFFFFCF4000FFCFB0B5364A80184A683F
:1008B00042600A78222A57D8930001A4E3589F4641
:1008C0005F090000690900005F0900006909000074
:1008D0006909000069090000690900006909000050
:1008E0006909000069090000690900006909000040
:1008F0006909000069090000690900006909000030
:100900004D090000690900004D0900006909000057
:10091000690900006909000069090000690900000F
:1009200069090000690900006909000069090000FF
:1009300069090000690900006909000069090000EF
:100940004D090000690900004D09000003231B0741
:1009500004689C4301235B07E318036004E003235E
:100960001B0704689C4304600B69C360CB68064C9A
:100970001C40C36A054D1D402B19C362097A1143FF
:100980000160B0BD04180000777702008888FDFF81
:1009900010B507239B04194092008018024A84581E
:1009A0009C436118815010BD3018000010B5029CA6
:1009B000A400001911431943014A815010BDC046DB
:1009C0005018000092008018014A81507047C046BC
:1009D0001018000010B50122120383180C789C60D7
:1009E0004B7883508978014A815010BD0C1100006A
:1009F000B0B51122120283580124A34383508B788F
:100A00000C881C438B882343094C1C408358094D98
:100A10001D402B1983508B79CC791C43097A2143D3
:100A20007E231940801842689A4351184160B0BD36
:100A300018670000E798FDFF10B501221203831824
:100A40000C789C604978815010BD0000F0B5002002
:100A5000C14313480246103A13689A05114A02D45A
:100A60005B070FD4F0BD01256C021668F60500D5B2
:100A70000D460D4E37687D193560056825430560C4
:100A80005B07EFD51268120700D40121074A1368EB
:100A900059181160016804220A430260F0BDC04683
:100AA00048300A4080330A40EC04202068002020AF
:100AB00080B502A0FFF748FC80BDC046656E747229
:100AC00079204572726F72212121210D00000000F2
:100AD000B0B502480346F833802401E06C002020C2
:100AE000002119701A46083A11701A46103A11700E
:100AF0001A46183A11701A46203A11701A46283AC6
:100B000011701A46303A11701A46383A11701A4666
:100B1000403A11701A46483A11701A46503A11700C
:100B20001A46583A11701A46603A11701A46683AD5
:100B300011701A46703A11701A46783A11701A46B6
:100B4000803A11701A46883A11701A46903A11701C
:100B50001A46983A11701A46A03A11701A46A83AE5
:100B600011701A46B03A11701A46B83A11701A4606
:100B7000C03A11701A46C83A11701A46D03A11702C
:100B80001A46D83A11701A46E03A11701A46E83AF5
:100B900011701A46F03A11701A46F83A1170012293
:100BA00012029B18203C9BD10446F934802321700B
:100BB0002546083D29702546103D29702546183DDB
:100BC00029702546203D29702546283D2970254657
:100BD000303D29702546383D29702546403D297015
:100BE0002546483D29702546503D29702546583DEB
:100BF00029702546603D29702546683D29702546A7
:100C0000703D29702546783D29702546803D297024
:100C10002546883D29702546903D29702546983DFA
:100C200029702546A03D29702546A83D29702546F6
:100C3000B03D29702546B83D29702546C03D297034
:100C40002546C83D29702546D03D29702546D83D0A
:100C500029702546E03D29702546E83D2970254646
:100C6000F03D2970A518F83C2170203B2C469ED100
:100C70000446FA34802321702546083D2970254614
:100C8000103D29702546183D29702546203D2970C4
:100C90002546283D29702546303D29702546383D9A
:100CA00029702546403D29702546483D2970254636
:100CB000503D29702546583D29702546603D2970D4
:100CC0002546683D29702546703D29702546783DAA
:100CD00029702546803D29702546883D2970254686
:100CE000903D29702546983D29702546A03D2970E4
:100CF0002546A83D29702546B03D29702546B83DBA
:100D000029702546C03D29702546C83D29702546D5
:100D1000D03D29702546D83D29702546E03D2970F3
:100D20002546E83D29702546F03D2970A518F83C78
:100D30002170203B2C469ED10446FB348023217039
:100D40002546083D29702546103D29702546183D49
:100D500029702546203D29702546283D29702546C5
:100D6000303D29702546383D29702546403D297083
:100D70002546483D29702546503D29702546583D59
:100D800029702546603D29702546683D2970254615
:100D9000703D29702546783D29702546803D297093
:100DA0002546883D29702546903D29702546983D69
:100DB00029702546A03D29702546A83D2970254665
:100DC000B03D29702546B83D29702546C03D2970A3
:100DD0002546C83D29702546D03D29702546D83D79
:100DE00029702546E03D29702546E83D29702546B5
:100DF000F03D2970A518F83C2170203B2C469ED16F
:100E00000446FC34802321702546083D2970254680
:100E1000103D29702546183D29702546203D297032
:100E20002546283D29702546303D29702546383D08
:100E300029702546403D29702546483D29702546A4
:100E4000503D29702546583D29702546603D297042
:100E50002546683D29702546703D29702546783D18
:100E600029702546803D29702546883D29702546F4
:100E7000903D29702546983D29702546A03D297052
:100E80002546A83D29702546B03D29702546B83D28
:100E900029702546C03D29702546C83D2970254644
:100EA000D03D29702546D83D29702546E03D297062
:100EB0002546E83D29702546F03D2970A518F83CE7
:100EC0002170203B2C469ED10446FD3480232170A6
:100ED0002546083D29702546103D29702546183DB8
:100EE00029702546203D29702546283D2970254634
:100EF000303D29702546383D29702546403D2970F2
:100F00002546483D29702546503D29702546583DC7
:100F100029702546603D29702546683D2970254683
:100F2000703D29702546783D29702546803D297001
:100F30002546883D29702546903D29702546983DD7
:100F400029702546A03D29702546A83D29702546D3
:100F5000B03D29702546B83D29702546C03D297011
:100F60002546C83D29702546D03D29702546D83DE7
:100F700029702546E03D29702546E83D2970254623
:100F8000F03D2970A518F83C2170203B2C469ED1DD
:100F90000446FE34802321702546083D29702546ED
:100FA000103D29702546183D29702546203D2970A1
:100FB0002546283D29702546303D29702546383D77
:100FC00029702546403D29702546483D2970254613
:100FD000503D29702546583D29702546603D2970B1
:100FE0002546683D29702546703D29702546783D87
:100FF00029702546803D29702546883D2970254663
:10100000903D29702546983D29702546A03D2970C0
:101010002546A83D29702546B03D29702546B83D96
:1010200029702546C03D29702546C83D29702546B2
:10103000D03D29702546D83D29702546E03D2970D0
:101040002546E83D29702546F03D2970A518F83C55
:101050002170203B2C469ED1FF3080230170044636
:10106000083C21700446103C21700446183C217055
:101070000446203C21700446283C21700446303C44
:1010800021700446383C21700446403C21700446DF
:10109000483C21700446503C21700446583C217065
:1010A0000446603C21700446683C21700446703C54
:1010B00021700446783C21700446803C217004462F
:1010C000883C21700446903C21700446983C217075
:1010D0000446A03C21700446A83C21700446B03C64
:1010E00021700446B83C21700446C03C217004467F
:1010F000C83C21700446D03C21700446D83C217085
:101100000446E03C21700446E83C21700446F03C73
:1011100021708418F8380170203B20469ED100F0E1
:101120009FFBB0BDF0B581B0AE200024214600F099
:1011300011FC2046214600F00DFC1020214600F055
:1011400009FC40273846214600F004FC8120214656
:1011500000F000FCCF20214600F0FCFBA12021463E
:1011600000F0F8FBC820214600F0F4FBA62630462C
:10117000214600F0EFFBA820214600F0EBFB3F20CA
:10118000214600F0E7FBD320214600F0E3FB204698
:10119000214600F0DFFBD520214600F0DBFB802557
:1011A0002846214600F0D6FBD920214600F0D2FB8C
:1011B000F120214600F0CEFBDA20214600F0CAFBE8
:1011C0001220214600F0C6FBDB20214600F0C2FBC6
:1011D0003846214600F0BEFB2020214600F0BAFB35
:1011E0000220214600F0B6FB8D20214600F0B2FB24
:1011F0001420214600F0AEFBA420214600F0AAFBFB
:101200003046214600F0A6FB01480246F83201E0D4
:101210006C0020201470114608390C7011461039EA
:101220000C70114618390C70114620390C7011469B
:1012300028390C70114630390C70114638390C7051
:10124000114640390C70114648390C70114650391E
:101250000C70114658390C70114660390C701146EB
:1012600068390C70114670390C70114678390C7061
:10127000114680390C70114688390C70114690392E
:101280000C70114698390C701146A0390C7011463B
:10129000A8390C701146B0390C701146B8390C7071
:1012A0001146C0390C701146C8390C701146D0393E
:1012B0000C701146D8390C701146E0390C7011468B
:1012C000E8390C701146F0390C701146F8390C7081
:1012D000012109025218203D9CD10346F933802296
:1012E0001C701D46083D2C701D46103D2C701D467F
:1012F000183D2C701D46203D2C701D46283D2C703D
:101300001D46303D2C701D46383D2C701D46403D1D
:101310002C701D46483D2C701D46503D2C701D46BE
:10132000583D2C701D46603D2C701D46683D2C704C
:101330001D46703D2C701D46783D2C701D46803D2D
:101340002C701D46883D2C701D46903D2C701D460E
:10135000983D2C701D46A03D2C701D46A83D2C705C
:101360001D46B03D2C701D46B83D2C701D46C03D3D
:101370002C701D46C83D2C701D46D03D2C701D465E
:10138000D83D2C701D46E03D2C701D46E83D2C706C
:101390001D46F03D2C705D18F83B1C70203A2B4622
:1013A0009ED10346FA3380221C701D46083D2C70E6
:1013B0001D46103D2C701D46183D2C701D46203DCD
:1013C0002C701D46283D2C701D46303D2C701D464E
:1013D000383D2C701D46403D2C701D46483D2C70FC
:1013E0001D46503D2C701D46583D2C701D46603DDD
:1013F0002C701D46683D2C701D46703D2C701D469E
:10140000783D2C701D46803D2C701D46883D2C700B
:101410001D46903D2C701D46983D2C701D46A03DEC
:101420002C701D46A83D2C701D46B03D2C701D46ED
:10143000B83D2C701D46C03D2C701D46C83D2C701B
:101440001D46D03D2C701D46D83D2C701D46E03DFC
:101450002C701D46E83D2C701D46F03D2C705D182B
:10146000F83B1C70203A2B469ED10346FB3380226A
:101470001C701D46083D2C701D46103D2C701D46ED
:10148000183D2C701D46203D2C701D46283D2C70AB
:101490001D46303D2C701D46383D2C701D46403D8C
:1014A0002C701D46483D2C701D46503D2C701D462D
:1014B000583D2C701D46603D2C701D46683D2C70BB
:1014C0001D46703D2C701D46783D2C701D46803D9C
:1014D0002C701D46883D2C701D46903D2C701D467D
:1014E000983D2C701D46A03D2C701D46A83D2C70CB
:1014F0001D46B03D2C701D46B83D2C701D46C03DAC
:101500002C701D46C83D2C701D46D03D2C701D46CC
:10151000D83D2C701D46E03D2C701D46E83D2C70DA
:101520001D46F03D2C705D18F83B1C70203A2B4690
:101530009ED10346FC3380221C701D46083D2C7052
:101540001D46103D2C701D46183D2C701D46203D3B
:101550002C701D46283D2C701D46303D2C701D46BC
:10156000383D2C701D46403D2C701D46483D2C706A
:101570001D46503D2C701D46583D2C701D46603D4B
:101580002C701D46683D2C701D46703D2C701D460C
:10159000783D2C701D46803D2C701D46883D2C707A
:1015A0001D46903D2C701D46983D2C701D46A03D5B
:1015B0002C701D46A83D2C701D46B03D2C701D465C
:1015C000B83D2C701D46C03D2C701D46C83D2C708A
:1015D0001D46D03D2C701D46D83D2C701D46E03D6B
:1015E0002C701D46E83D2C701D46F03D2C705D189A
:1015F000F83B1C70203A2B469ED10346FD338022D7
:101600001C701D46083D2C701D46103D2C701D465B
:10161000183D2C701D46203D2C701D46283D2C7019
:101620001D46303D2C701D46383D2C701D46403DFA
:101630002C701D46483D2C701D46503D2C701D469B
:10164000583D2C701D46603D2C701D46683D2C7029
:101650001D46703D2C701D46783D2C701D46803D0A
:101660002C701D46883D2C701D46903D2C701D46EB
:10167000983D2C701D46A03D2C701D46A83D2C7039
:101680001D46B03D2C701D46B83D2C701D46C03D1A
:101690002C701D46C83D2C701D46D03D2C701D463B
:1016A000D83D2C701D46E03D2C701D46E83D2C7049
:1016B0001D46F03D2C705D18F83B1C70203A2B46FF
:1016C0009ED10346FE3380221C701D46083D2C70BF
:1016D0001D46103D2C701D46183D2C701D46203DAA
:1016E0002C701D46283D2C701D46303D2C701D462B
:1016F000383D2C701D46403D2C701D46483D2C70D9
:101700001D46503D2C701D46583D2C701D46603DB9
:101710002C701D46683D2C701D46703D2C701D467A
:10172000783D2C701D46803D2C701D46883D2C70E8
:101730001D46903D2C701D46983D2C701D46A03DC9
:101740002C701D46A83D2C701D46B03D2C701D46CA
:10175000B83D2C701D46C03D2C701D46C83D2C70F8
:101760001D46D03D2C701D46D83D2C701D46E03DD9
:101770002C701D46E83D2C701D46F03D2C705D1808
:10178000F83B1C70203A2B469ED1FF30802204701B
:101790000346083B1C700346103B1C700346183B75
:1017A0001C700346203B1C700346283B1C700346FC
:1017B000303B1C700346383B1C700346403B1C709A
:1017C0000346483B1C700346503B1C700346583B85
:1017D0001C700346603B1C700346683B1C7003464C
:1017E000703B1C700346783B1C700346803B1C70AA
:1017F0000346883B1C700346903B1C700346983B95
:101800001C700346A03B1C700346A83B1C7003469B
:10181000B03B1C700346B83B1C700346C03B1C70B9
:101820000346C83B1C700346D03B1C700346D83BA4
:101830001C700346E03B1C700346E83B1C700346EB
:10184000F03B1C704318F8380470203A18469ED1BB
:1018500000F006F8AF20002100F07CF801B0F0BDE8
:10186000F0B585B000203A4F02905038C0B2002445
:10187000214600F06FF82046214600F06BF810205A
:10188000214600F067F802255948056001260660E8
:101890000A24204600F0ECFB55480561204600F084
:1018A000E7FB53480661204600F0E2FB782000F099
:1018B00099FA4F480560204600F0DAFB4C48066074
:1018C000204600F0D5FB4A480661204600F0D0FBD8
:1018D000402000F087FA049545480560204600F056
:1018E000C7FB434806600546204600F0C1FB03964F
:1018F0002E61204600F0BCFB80260197387800F06E
:1019000071FA3B49049808600A24204600F0B0FBB5
:10191000039D37480560204600F0AAFB3448056166
:10192000204600F0A5FB761E0837002EE6D1304C8D
:10193000049D2561039820600A2000F099FB256032
:10194000019F7F1C0298401C08288DD105B0F0BD76
:101950006C002020F0B583B001910290244F022644
:101960003E6001253D600A24204600F081FB3E6177
:10197000204600F07DFB3D61204600F079FB782099
:1019800000F030FA3E60204600F072FB3D602046D9
:1019900000F06EFB3D61204600F06AFB0199481E95
:1019A0008141880100F01EFA3E60204600F060FB95
:1019B0003D60204600F05CFB3D61204600F058FB96
:1019C000029800F00FFA3E60204600F051FB3D60A7
:1019D000204600F04DFB3D61204600F049FB3E6192
:1019E0003D60204600F044FB3E6003B0F0BDC046C1
:1019F00090120A4080B500F0ABF901204003024983
:101A000008600249086080BD80E200E000E100E07B
:101A100070B5284B852018600124A0032649086072
:101A20008420D8646006086086209862600508609B
:101A30008820D862A0050860204D82222A652048AF
:101A4000461C6E65AA64EE641E4A1A661E4A1A6136
:101A500081222A606A60A863E86368662866586223
:101A60001862186318640B46303BE4061C600B4692
:101A7000403B03251D60E31C0B6014490B681024D8
:101A80001C430C6001468139114B1C6A0C431C62DB
:101A90001C680C431C6071380E490B6803430B60D3
:101AA00090000D490A6A02430A620A6802430A600A
:101AB00070BDC04690804240D0120A40048042402F
:101AC000810004008100010081000500A0130A408C
:101AD00028100A4090330A4028300A40F0B581B0FF
:101AE000194C1A492046FEF775FF19492046FEF7A2
:101AF0007BFE00250095204629462A462B46FEF708
:101B000055FF204629462A46FEF742FF304E204622
:101B100031462A46FEF756FF012700972046294600
:101B20002A462B46FEF742FF204629463A46FEF754
:101B30002FFF204631463A46FEF744FF05488760AE
:101B40000321016001B0F0BD008086403421000017
:101B50003821000000918640F0B581B0194C1A4937
:101B60002046FEF737FF19492046FEF73DFE0025C7
:101B70000095204629462A462B46FEF717FF2046A9
:101B800029462A46FEF704FF114E204631462A46D2
:101B9000FEF718FF01270097204629462A462B46C4
:101BA000FEF704FF204629463A46FEF7F1FE20469E
:101BB00031463A46FEF706FF06488760032101607A
:101BC00001B0F0BD0000874040210000442100002A
:101BD000AF040000001187400C4800210160032081
:101BE000C1430B480246083A13680B401360016872
:101BF000012291430160110203688B4303601103CA
:101C0000001F02680A4302607047C04608030B4089
:101C100008010B400548042101601F21416000219B
:101C20008160016805220A430260704710E000E00D
:101C300010B5084C08492046FEF7CCFE074920465F
:101C4000FEF732FE06480168012211430160054893
:101C5000026010BD004008404C21000050210000EF
:101C60002850084008510840B0B5174C1749204685
:101C7000FEF7E2FE16492046FEF7BAFE0320C10336
:101C8000144802688A43026002692F490A40921C84
:101C9000026142690B231343342293434361436837
:101CA0000122134044689443E318436093020A4CB2
:101CB00025681D432560FF31084B1C680C401C60E3
:101CC000016811430160B0BD0000104064210000B4
:101CD0006621000000111040281010400CE400E0C4
:101CE00010B5154C15492046FEF7A6FE14492046AE
:101CF000FEF77EFE0320C103124802688A43026099
:101D00000169114A0A4011320261416917220A43EE
:101D100028218A434261416801221140436893436C
:101D2000591841609102094B1C680C431C60016802
:101D30001143016010BDC0460080104070210000BA
:101D400072210000009110400000FFFF2890104019
:101D500080B500F017F8FFF75BFEFFF73DFFFFF7D8
:101D6000FBFEFFF7BBFEFFF763FFFFF7B9FFFFF7CF
:101D70007BFFFFF74FFF7420014900220A5480BD0A
:101D800048052020F0B581B00D480E4941600E4A4B
:101D900051600E4B59600E4C61600E4D69600E4EE5
:101DA00071600E4F79600E49016011601960216009
:101DB0002960316039601020FEF710FD01B0F0BDE0
:101DC00000080A40030000B100280A4000088740CC
:101DD00000888640004808400088104000081040F5
:101DE00001000026F0B581B0044640B2414E002803
:101DF00002D40220306101E0022030600A2528462A
:101E000000F036F901273760284600F031F93761D4
:101E1000600602D40220306101E0022030600A2511
:101E2000284600F025F93760284600F021F937618F
:101E3000A00602D40220306101E0022030600A25B1
:101E4000284600F015F93760284600F011F937618F
:101E5000E00602D40220306101E0022030600A2551
:101E6000284600F005F93760284600F001F937618F
:101E7000200702D40220306101E0022030600A25F0
:101E8000284600F0F5F83760284600F0F1F8376191
:101E9000600702D40220306101E0022030600A2590
:101EA000284600F0E5F83760284600F0E1F8376191
:101EB000A00702D40220306101E0022030600A2530
:101EC000284600F0D5F83760284600F0D1F8376191
:101ED000E00702D10220306101E0022030600A24D4
:101EE000204600F0C5F83760204600F0C1F83761A1
:101EF00001B0F0BD90120A4005480068C0B2012848
:101F000004D1044800210160034801607047C046C5
:101F10002050084068002020EC04202010B5124812
:101F20000068C0B20B281DD1104A13886948C169E6
:101F30007E2B12D80E4CE1545B1C13800268D20732
:101F400008D00268D20705D00268D20702D0026822
:101F5000D207F3D1C9B2816101E0002010800548A9
:101F60000121017010BDC0462090104016072020AE
:101F7000940620201407202010B521480068C0B224
:101F80000B2812D11F480068C1B21F480278012AED
:101F900003D15B2901D05D2908D11C4A1268002AAF
:101FA0000BD15B2909D10121017010BD174A1368BB
:101FB000174CE1545B1C136012685D29F5D10021B8
:101FC00001701248016012481249FEF7D3F9002847
:101FD0000DD0FEF7ABF91049086000200D49FEF75F
:101FE000C9F9002803D0FEF7A1F90C4908600B4895
:101FF0000268094801680AA0FEF7F4F810BDC0465F
:10200000201010402411104044052020900620206C
:10201000C80520207C210000C0052020C405202008
:1020200025640A25640A00007047000080B5FFF7A8
:102030008FFE0120C003044908600449086004A021
:10204000FEF782F980BDC04680E200E000E100E0DA
:10205000426F61726420496E6974205B5B202A2A9A
:10206000204C434B4642202A2A205D5D0D00000093
:10207000B0B50F490B684001262206E0E41A0D1F97
:102080002D686419A218824210D21C460B68A34224
:1020900008D10B68A34205D10B68A34202D10B689B
:1020A000A342F3D09C42E9D9E41AEBE7B0BDC046A5
:1020B00018E000E007490A68D20708D00A68D2078A
:1020C00005D00A68D20702D00A68D207F3D1C2B29B
:1020D0008A61704708911040FFF73AFEFFF7A6FFAC
:1020E000FFF720F8FEF7F4FCFFF784FC0120000462
:1020F000034908600349086002200860FEE7C04603
:1021000080E200E000E100E010B500290AD0087884
:10211000002807D005487844FEF708FB002801D0C6
:10212000002010BD0248784410BD00008A00000065
:102130008200000008070000A00F0000000100005E
:1021400008070000A00F0000000100000807FF00C2
:10215000020000001A06000001000000000000005C
:102160000000000004000000180000000030000023
:102170000800000018000000003000002C000000E3
:10218000B022000000002020080000002001000014
:10219000B8220000080020201008000048010000BC
:1021A0001001000043000000F8FFFFFF0040404026
:1021B000404040404040414141414140404040401A
:1021C00040404040404040404040404040050202C6
:1021D0000202020202020202020202020220202085
:1021E00020202020202020020202020202029090E1
:1021F00090909090101010101010101010101010DF
:102200001010101010101010020202020202888832
:10221000888888880808080808080808080808083E
:102220000808080808080808020202024000000026
:10223000000000000000000000000000000000009E
:10224000000000000000000000000000000000008E
:10225000000000000000000000000000000000007E
:10226000000000000000000000000000000000006E
:10227000000000000000000000000000000000005E
:10228000000000000000000000000000000000004E
:10229000000000000000000000000000000000003E
:1022A000000000000000000000000000000000002E
:0822B000000000000000000026
:04000005000000C136
:00000001FF
