:020000040000FA
:10000000480720209D010000A10100007D0600009E
:1000100000000000000000000000000000000000E0
:10002000000000000000000000000000A50100002A
:100030000000000000000000A7010000A90100006E
:10004000AB0100001D060000AB010000AB01000089
:10005000AB010000AB010000AB010000AB010000F0
:1000600000000000AB010000AB0100000000000038
:1000700000000000191D0000AB010000BD1C0000C5
:10008000991C0000AB010000AB010000AB010000B7
:10009000AB010000AB010000000000000000000008
:1000A000AB010000AB0100000000000000000000F8
:1000B000AB01000000000000AB010000AB0100003C
:1000C00000F002F800F05AF812A030C808382418DE
:1000D0002D18AC4201D100F051F80FCCA246AB462E
:1000E0000CA730CF2D1B083F3F197C427F1E544484
:1000F0002D090426F441641EAC4201D300F03EF801
:100100000126334200D0FB1A3343984754465D46DC
:10011000DFE700009C200000BC2000000000000081
:10012000103A02D378C878C1FAD8520701D330C840
:1001300030C101D504680C60704700000000000069
:100140007047000000000000002300240025002666
:10015000103A01D378C1FBD8520700D330C100D583
:100160000B60704710B5732902D100F0F0F810BD94
:10017000002010BD1FB51FBD10B510BD00F0F0F878
:100180001146FFF7F7FF01F02BFE00F008F903B46A
:10019000FFF7F2FF03BC01F0CBFD0000064800476B
:1001A000FEE7FEE7FEE7FEE7FEE7FEE70348044959
:1001B000024A044B70470000C1000000480620209E
:1001C000480720204806202070B50C460546012A25
:1001D00005D02878800600D5EA69002302E00123D3
:1001E00005E05B1C934202D2E05C0028F9D1A869CB
:1001F000E618C01AA861286AC01828622846C046B6
:10020000C04604E06A682078A968641C9047B4423C
:10021000F8D32846C046C04670BD000010B504465D
:1002200003E001F0CBFD401C08D020780549641C98
:100230000028F6D10A2001F0C1FD10BD0020C04306
:1002400010BD0000F404202070477047704710B5BF
:1002500001469E240002CA15A307002A02D01843B3
:10026000002A04DBA21A002A0CDDD04010BD1206C1
:10027000120E01D140004008A21A03D4D0404042DF
:100280000028F3DDFF2248001206904201D9002029
:1002900010BDC817C043584010BD0102C21504D09C
:1002A0000123DB071943002A0ADB9E239A1A02D492
:1002B0000846D0407047FF2241001206914201D902
:1002C00000207047C017C04370471F22030C02D1A3
:1002D0000F2200041CD0030E01D10002083A030FC4
:1002E00001D10001121F830F01D18000921E00284E
:1002F00001DB4000521ED20551180212511819227A
:10030000904004D3491C002801D1490849000846FF
:100310007047C10FC90700D0404201229207114324
:10032000D3E701218907D0E710B54369002B02D03C
:10033000C046C04601E0FFF747FF012010BD12781C
:10034000014624310A7000224A700122ECE711684C
:100350000022D243E8E70000004870470800202050
:100360007546FFF7F9FFAE46050069465346C008DB
:10037000C000854618B020B5FFF718FF60BCB64630
:1003800000260027C0C5C0C5C0C5C0C5C0C5C0C502
:10039000C0C5C0C5403D490849008D46704710B5ED
:1003A0000446C046C0462046FFF7F1FE10BD811E40
:1003B000091F00BFFCD27047F0B5664A8218294B6E
:1003C000C318087920280DD000281DD10C68641EA0
:1003D0005460D56E244C25408835D5661646703657
:1003E00088251DE00C68641E5460D46E1E4D2C40A0
:1003F0001E4EA419D466146F2C40A419146701244E
:1004000065071B4C16460BE00C6864085460D66EFA
:10041000154C26400525ED017619D6661646703630
:10042000376827402F433760D46A4C4D2C40D46244
:10043000146B2C4014630024D46414658F24E443AB
:10044000D56F2540D5671D6825401D60497901435A
:10045000BD2008401168074B0B40C018801C10607D
:10046000F0BDC0468418000024F93FF001040000EC
:10047000FFFFFFCF4000FFCFB0B5364A80184A6873
:1004800042600A78222A57D8930001A4E3589F4675
:100490002F050000390500002F0500003905000078
:1004A0003905000039050000390500003905000054
:1004B0003905000039050000390500003905000044
:1004C0003905000039050000390500003905000034
:1004D0001D050000390500001D050000390500005C
:1004E0003905000039050000390500003905000014
:1004F0003905000039050000390500003905000004
:1005000039050000390500003905000039050000F3
:100510001D050000390500001D05000003231B0711
:1005200004689C4301235B07E318036004E0032392
:100530001B0704689C4304600B69C360CB68064CCE
:100540001C40C36A054D1D402B19C362097A114333
:100550000160B0BD04180000777702008888FDFFB5
:1005600010B507239B04194092008018024A845852
:100570009C436118815010BD3018000010B5029CDA
:10058000A400001911431943014A815010BDC0460F
:100590005018000092008018014A81507047C046F0
:1005A0001018000010B50122120383180C789C600B
:1005B0004B7883508978014A815010BD0C1100009E
:1005C000B0B51122120283580124A34383508B78C3
:1005D0000C881C438B882343094C1C408358094DCD
:1005E0001D402B1983508B79CC791C43097A214308
:1005F0007E231940801842689A4351184160B0BD6B
:1006000018670000E798FDFF10B501221203831858
:100610000C789C604978815010BD0000F0B5002036
:10062000C14313480246103A13689A05314A02D46E
:100630005B070FD4F0BD01256C021668F60500D5E6
:100640000D460C4E37687D193560056825430560F9
:100650005B07EFD51268120700D40121064A136820
:1006600059181160016804220A430260F0BDC046B7
:1006700048300A40F00420206C00202080B502A001
:10068000FFF7CCFD80BDC046656E7472792045725F
:10069000726F72212121210D0000000080B5154AE2
:1006A00013681168106812681B0303D4134800F024
:1006B00051F880BDD20103D4104800F021F880BD6C
:1006C00001229304194012051040002905D1002889
:1006D00003D0094800F03EF880BD002905D000286D
:1006E00003D1054800F00CF880BD002000F05AF856
:1006F00080BDC04680330A40000048430000E1430B
:10070000B0B5054600242046214601F02FF82846C2
:10071000FFF79DFD4149884201DD434809E040491A
:100720000D8868433F4901F097FB281800B2FFF796
:10073000F0FD0125294601F019F82046214601F077
:1007400025F83748005FFFF7E4FD294601F01EF861
:10075000B0BDC04670B5044600252846294601F0C4
:1007600005F82F4E705FFFF7D4FD012100F0FEFF6A
:100770002846294601F00AF82046FFF768FD274978
:10078000884201DD284808E034886043254901F0AB
:1007900063FB201800B2FFF7BCFD012100F0F6FF5B
:1007A00070BDC046F0B581B004460020014600F09F
:1007B000DDFF2046FFF74BFD04461848844209DD63
:1007C000194C0121204600F0D1FF0020014600F025
:1007D000DDFF1DE0124E378820467843114D294633
:1007E00001F03AFB381800B2FFF793FD012100F049
:1007F000BDFF0020014600F0C9FF36887443204643
:10080000294601F029FB301800B2FFF782FD0446AB
:100810000121204600F0BAFF01B0F0BDFE03000048
:100820000000202001FCFFFF00007A45B0B502481F
:100830000346F833802401E0700020200021197065
:100840001A46083A11701A46103A11701A46183AA8
:1008500011701A46203A11701A46283A11701A4639
:10086000303A11701A46383A11701A46403A1170EF
:100870001A46483A11701A46503A11701A46583AB8
:1008800011701A46603A11701A46683A11701A4689
:10089000703A11701A46783A11701A46803A1170FF
:1008A0001A46883A11701A46903A11701A46983AC8
:1008B00011701A46A03A11701A46A83A11701A46D9
:1008C000B03A11701A46B83A11701A46C03A11700F
:1008D0001A46C83A11701A46D03A11701A46D83AD8
:1008E00011701A46E03A11701A46E83A11701A4629
:1008F000F03A11701A46F83A1170012212029B1850
:10090000203C9BD10446F934802321702546083DC4
:1009100029702546103D29702546183D2970254629
:10092000203D29702546283D29702546303D2970F7
:100930002546383D29702546403D29702546483DCD
:1009400029702546503D29702546583D2970254679
:10095000603D29702546683D29702546703D297007
:100960002546783D29702546803D29702546883DDD
:1009700029702546903D29702546983D29702546C9
:10098000A03D29702546A83D29702546B03D297017
:100990002546B83D29702546C03D29702546C83DED
:1009A00029702546D03D29702546D83D2970254619
:1009B000E03D29702546E83D29702546F03D297027
:1009C000A518F83C2170203B2C469ED10446FA34F1
:1009D000802321702546083D29702546103D297049
:1009E0002546183D29702546203D29702546283D7D
:1009F00029702546303D29702546383D2970254609
:100A0000403D29702546483D29702546503D2970B6
:100A10002546583D29702546603D29702546683D8C
:100A200029702546703D29702546783D2970254658
:100A3000803D29702546883D29702546903D2970C6
:100A40002546983D29702546A03D29702546A83D9C
:100A500029702546B03D29702546B83D29702546A8
:100A6000C03D29702546C83D29702546D03D2970D6
:100A70002546D83D29702546E03D29702546E83DAC
:100A800029702546F03D2970A518F83C2170203BBF
:100A90002C469ED10446FB34802321702546083D18
:100AA00029702546103D29702546183D2970254698
:100AB000203D29702546283D29702546303D297066
:100AC0002546383D29702546403D29702546483D3C
:100AD00029702546503D29702546583D29702546E8
:100AE000603D29702546683D29702546703D297076
:100AF0002546783D29702546803D29702546883D4C
:100B000029702546903D29702546983D2970254637
:100B1000A03D29702546A83D29702546B03D297085
:100B20002546B83D29702546C03D29702546C83D5B
:100B300029702546D03D29702546D83D2970254687
:100B4000E03D29702546E83D29702546F03D297095
:100B5000A518F83C2170203B2C469ED10446FC345D
:100B6000802321702546083D29702546103D2970B7
:100B70002546183D29702546203D29702546283DEB
:100B800029702546303D29702546383D2970254677
:100B9000403D29702546483D29702546503D297025
:100BA0002546583D29702546603D29702546683DFB
:100BB00029702546703D29702546783D29702546C7
:100BC000803D29702546883D29702546903D297035
:100BD0002546983D29702546A03D29702546A83D0B
:100BE00029702546B03D29702546B83D2970254617
:100BF000C03D29702546C83D29702546D03D297045
:100C00002546D83D29702546E03D29702546E83D1A
:100C100029702546F03D2970A518F83C2170203B2D
:100C20002C469ED10446FD34802321702546083D84
:100C300029702546103D29702546183D2970254606
:100C4000203D29702546283D29702546303D2970D4
:100C50002546383D29702546403D29702546483DAA
:100C600029702546503D29702546583D2970254656
:100C7000603D29702546683D29702546703D2970E4
:100C80002546783D29702546803D29702546883DBA
:100C900029702546903D29702546983D29702546A6
:100CA000A03D29702546A83D29702546B03D2970F4
:100CB0002546B83D29702546C03D29702546C83DCA
:100CC00029702546D03D29702546D83D29702546F6
:100CD000E03D29702546E83D29702546F03D297004
:100CE000A518F83C2170203B2C469ED10446FE34CA
:100CF000802321702546083D29702546103D297026
:100D00002546183D29702546203D29702546283D59
:100D100029702546303D29702546383D29702546E5
:100D2000403D29702546483D29702546503D297093
:100D30002546583D29702546603D29702546683D69
:100D400029702546703D29702546783D2970254635
:100D5000803D29702546883D29702546903D2970A3
:100D60002546983D29702546A03D29702546A83D79
:100D700029702546B03D29702546B83D2970254685
:100D8000C03D29702546C83D29702546D03D2970B3
:100D90002546D83D29702546E03D29702546E83D89
:100DA00029702546F03D2970A518F83C2170203B9C
:100DB0002C469ED1FF30802301700446083C2170F0
:100DC0000446103C21700446183C21700446203C27
:100DD00021700446283C21700446303C21700446B2
:100DE000383C21700446403C21700446483C217048
:100DF0000446503C21700446583C21700446603C37
:100E000021700446683C21700446703C2170044601
:100E1000783C21700446803C21700446883C217057
:100E20000446903C21700446983C21700446A03C46
:100E300021700446A83C21700446B03C2170044651
:100E4000B83C21700446C03C21700446C83C217067
:100E50000446D03C21700446D83C21700446E03C56
:100E600021700446E83C21700446F03C217084184F
:100E7000F8380170203B20469ED100F09FFBB0BDAA
:100E8000F0B581B0AE200024214600F011FC2046D0
:100E9000214600F00DFC1020214600F009FC4027FF
:100EA0003846214600F004FC8120214600F000FC79
:100EB000CF20214600F0FCFBA120214600F0F8FBEA
:100EC000C820214600F0F4FBA6263046214600F05B
:100ED000EFFBA820214600F0EBFB3F20214600F06D
:100EE000E7FBD320214600F0E3FB2046214600F03B
:100EF000DFFBD520214600F0DBFB8025284621467C
:100F000000F0D6FBD920214600F0D2FBF12021468B
:100F100000F0CEFBDA20214600F0CAFB1220214669
:100F200000F0C6FBDB20214600F0C2FB384621461C
:100F300000F0BEFB2020214600F0BAFB0220214633
:100F400000F0B6FB8D20214600F0B2FB14202146B4
:100F500000F0AEFBA420214600F0AAFB304621465B
:100F600000F0A6FB01480246F83201E070002020A4
:100F70001470114608390C70114610390C70114666
:100F800018390C70114620390C70114628390C7034
:100F9000114630390C70114638390C701146403901
:100FA0000C70114648390C70114650390C701146BE
:100FB00058390C70114660390C70114668390C7044
:100FC000114670390C70114678390C701146803911
:100FD0000C70114688390C70114690390C7011460E
:100FE00098390C701146A0390C701146A8390C7054
:100FF0001146B0390C701146B8390C701146C03921
:101000000C701146C8390C701146D0390C7011465D
:10101000D8390C701146E0390C701146E8390C7063
:101020001146F0390C701146F8390C700121090293
:101030005218203D9CD10346F93380221C701D4676
:10104000083D2C701D46103D2C701D46183D2C701F
:101050001D46203D2C701D46283D2C701D46303D00
:101060002C701D46383D2C701D46403D2C701D4691
:10107000483D2C701D46503D2C701D46583D2C702F
:101080001D46603D2C701D46683D2C701D46703D10
:101090002C701D46783D2C701D46803D2C701D46E1
:1010A000883D2C701D46903D2C701D46983D2C703F
:1010B0001D46A03D2C701D46A83D2C701D46B03D20
:1010C0002C701D46B83D2C701D46C03D2C701D4631
:1010D000C83D2C701D46D03D2C701D46D83D2C704F
:1010E0001D46E03D2C701D46E83D2C701D46F03D30
:1010F0002C705D18F83B1C70203A2B469ED103469D
:10110000FA3380221C701D46083D2C701D46103D90
:101110002C701D46183D2C701D46203D2C701D4620
:10112000283D2C701D46303D2C701D46383D2C70DE
:101130001D46403D2C701D46483D2C701D46503DBF
:101140002C701D46583D2C701D46603D2C701D4670
:10115000683D2C701D46703D2C701D46783D2C70EE
:101160001D46803D2C701D46883D2C701D46903DCF
:101170002C701D46983D2C701D46A03D2C701D46C0
:10118000A83D2C701D46B03D2C701D46B83D2C70FE
:101190001D46C03D2C701D46C83D2C701D46D03DDF
:1011A0002C701D46D83D2C701D46E03D2C701D4610
:1011B000E83D2C701D46F03D2C705D18F83B1C700E
:1011C000203A2B469ED10346FB3380221C701D46DD
:1011D000083D2C701D46103D2C701D46183D2C708E
:1011E0001D46203D2C701D46283D2C701D46303D6F
:1011F0002C701D46383D2C701D46403D2C701D4600
:10120000483D2C701D46503D2C701D46583D2C709D
:101210001D46603D2C701D46683D2C701D46703D7E
:101220002C701D46783D2C701D46803D2C701D464F
:10123000883D2C701D46903D2C701D46983D2C70AD
:101240001D46A03D2C701D46A83D2C701D46B03D8E
:101250002C701D46B83D2C701D46C03D2C701D469F
:10126000C83D2C701D46D03D2C701D46D83D2C70BD
:101270001D46E03D2C701D46E83D2C701D46F03D9E
:101280002C705D18F83B1C70203A2B469ED103460B
:10129000FC3380221C701D46083D2C701D46103DFD
:1012A0002C701D46183D2C701D46203D2C701D468F
:1012B000283D2C701D46303D2C701D46383D2C704D
:1012C0001D46403D2C701D46483D2C701D46503D2E
:1012D0002C701D46583D2C701D46603D2C701D46DF
:1012E000683D2C701D46703D2C701D46783D2C705D
:1012F0001D46803D2C701D46883D2C701D46903D3E
:101300002C701D46983D2C701D46A03D2C701D462E
:10131000A83D2C701D46B03D2C701D46B83D2C706C
:101320001D46C03D2C701D46C83D2C701D46D03D4D
:101330002C701D46D83D2C701D46E03D2C701D467E
:10134000E83D2C701D46F03D2C705D18F83B1C707C
:10135000203A2B469ED10346FD3380221C701D4649
:10136000083D2C701D46103D2C701D46183D2C70FC
:101370001D46203D2C701D46283D2C701D46303DDD
:101380002C701D46383D2C701D46403D2C701D466E
:10139000483D2C701D46503D2C701D46583D2C700C
:1013A0001D46603D2C701D46683D2C701D46703DED
:1013B0002C701D46783D2C701D46803D2C701D46BE
:1013C000883D2C701D46903D2C701D46983D2C701C
:1013D0001D46A03D2C701D46A83D2C701D46B03DFD
:1013E0002C701D46B83D2C701D46C03D2C701D460E
:1013F000C83D2C701D46D03D2C701D46D83D2C702C
:101400001D46E03D2C701D46E83D2C701D46F03D0C
:101410002C705D18F83B1C70203A2B469ED1034679
:10142000FE3380221C701D46083D2C701D46103D69
:101430002C701D46183D2C701D46203D2C701D46FD
:10144000283D2C701D46303D2C701D46383D2C70BB
:101450001D46403D2C701D46483D2C701D46503D9C
:101460002C701D46583D2C701D46603D2C701D464D
:10147000683D2C701D46703D2C701D46783D2C70CB
:101480001D46803D2C701D46883D2C701D46903DAC
:101490002C701D46983D2C701D46A03D2C701D469D
:1014A000A83D2C701D46B03D2C701D46B83D2C70DB
:1014B0001D46C03D2C701D46C83D2C701D46D03DBC
:1014C0002C701D46D83D2C701D46E03D2C701D46ED
:1014D000E83D2C701D46F03D2C705D18F83B1C70EB
:1014E000203A2B469ED1FF30802204700346083BF1
:1014F0001C700346103B1C700346183B1C700346CF
:10150000203B1C700346283B1C700346303B1C707C
:101510000346383B1C700346403B1C700346483B67
:101520001C700346503B1C700346583B1C7003461E
:10153000603B1C700346683B1C700346703B1C708C
:101540000346783B1C700346803B1C700346883B77
:101550001C700346903B1C700346983B1C7003466E
:10156000A03B1C700346A83B1C700346B03B1C709C
:101570000346B83B1C700346C03B1C700346C83B87
:101580001C700346D03B1C700346D83B1C700346BE
:10159000E03B1C700346E83B1C700346F03B1C70AC
:1015A0004318F8380470203A18469ED100F006F827
:1015B000AF20002100F07CF801B0F0BDF0B585B09F
:1015C00000203A4F02905038C0B20024214600F06B
:1015D0006FF82046214600F06BF81020214600F0FD
:1015E00067F8022559480560012606600A2420464E
:1015F00000F0C2FB55480561204600F0BDFB534892
:101600000661204600F0B8FB782000F0BBFA4F4896
:101610000560204600F0B0FB4C480660204600F014
:10162000ABFB4A480661204600F0A6FB402000F0D4
:10163000A9FA049545480560204600F09DFB434803
:1016400006600546204600F097FB03962E61204673
:1016500000F092FB80260197387800F093FA3B491E
:10166000049808600A24204600F086FB039D374852
:101670000560204600F080FB34480561204600F0FC
:101680007BFB761E0837002EE6D1304C049D256189
:10169000039820600A2000F06FFB2560019F7F1CEB
:1016A0000298401C08288DD105B0F0BD70002020A4
:1016B000F0B583B001910290244F02263E600125CF
:1016C0003D600A24204600F057FB3E61204600F0B2
:1016D00053FB3D61204600F04FFB782000F052FAAA
:1016E0003E60204600F048FB3D60204600F044FB91
:1016F0003D61204600F040FB0199481E8141880170
:1017000000F040FA3E60204600F036FB3D60204687
:1017100000F032FB3D61204600F02EFB029800F005
:1017200031FA3E60204600F027FB3D60204600F085
:1017300023FB3D61204600F01FFB3E613D602046DB
:1017400000F01AFB3E6003B0F0BDC04690120A40A4
:1017500080B500F0CDF9012040030249086002493C
:10176000086080BD80E200E000E100E010B50C46BA
:1017700001290AD801460D4800F08EFCFEF78DFDC8
:10178000014659482246FEF705FF10BD10B50C462C
:1017900001290AD80146054800F07EFCFEF77DFDD0
:1017A000014670482246FEF7F5FE10BD00007A455E
:1017B00070B5284B852018600124A00326490860D5
:1017C0008420D864600608608620986260050860FE
:1017D0008820D862A0050860204D82222A65204812
:1017E000461C6E65AA64EE641E4A1A661E4A1A6199
:1017F00081222A606A60A863E86368662866586286
:101800001862186318640B46303BE4061C600B46F4
:10181000403B03251D60E31C0B6014490B6810243A
:101820001C430C6001468139114B1C6A0C431C623D
:101830001C680C431C6071380E490B6803430B6035
:1018400090000D490A6A02430A620A6802430A606C
:1018500070BDC04690804240D0120A400480424091
:10186000810004008100010081000500A0130A40EE
:1018700028100A4090330A4028300A40F0B581B061
:10188000194C1A492046FEF78DFE19492046FEF7ED
:1018900093FD00250095204629462A462B46FEF753
:1018A0006DFE204629462A46FEF75AFE304E204657
:1018B00031462A46FEF76EFE01270097204629464C
:1018C0002A462B46FEF75AFE204629463A46FEF7A0
:1018D00047FE204631463A46FEF75CFE05488760E3
:1018E0000321016001B0F0BD008086406821000046
:1018F0006C21000000918640F0B581B0194C1A4966
:101900002046FEF74FFE19492046FEF755FD0025FB
:101910000095204629462A462B46FEF72FFE2046F4
:1019200029462A46FEF71CFE114E204631462A461D
:10193000FEF730FE01270097204629462A462B460F
:10194000FEF71CFE204629463A46FEF709FE2046D1
:1019500031463A46FEF71EFE0648876003210160C5
:1019600001B0F0BD00008740742100007821000024
:10197000AF040000001187400C48002101600320E3
:10198000C1430B480246083A13680B4013600168D4
:10199000012291430160110203688B43036011032C
:1019A000001F02680A4302607047C04608030B40EC
:1019B00008010B400548042101601F2141600021FE
:1019C0008160016805220A430260704710E000E070
:1019D00010B5084C08492046FEF7E4FD07492046AB
:1019E000FEF74AFD064801680122114301600548DF
:1019F000026010BD004008408021000084210000EA
:101A00002850084008510840B0B5174C17492046E7
:101A1000FEF7FAFD16492046FEF7D2FD0320C1036A
:101A2000144802688A43026002692F490A40921CE6
:101A3000026142690B231343342293434361436899
:101A40000122134044689443E318436093020A4C14
:101A500025681D432560FF31084B1C680C401C6045
:101A6000016811430160B0BD0000104098210000E2
:101A70009A21000000111040281010400CE400E0F2
:101A800010B5154C15492046FEF7BEFD14492046F9
:101A9000FEF796FD0320C103124802688A430260E4
:101AA0000169114A0A4011320261416917220A4351
:101AB00028218A43426141680122114043689343CF
:101AC000591841609102094B1C680C431C60016865
:101AD0001143016010BDC04600801040A4210000E9
:101AE000A6210000009110400000FFFF2890104048
:101AF00080B500F017F8FFF75BFEFFF73DFFFFF73B
:101B0000FBFEFFF7BBFEFFF763FFFFF7B9FFFFF731
:101B10007BFFFFF74FFF7420014900220A5480BD6C
:101B200048052020F0B581B00D480E4941600E4AAD
:101B300051600E4B59600E4C61600E4D69600E4E47
:101B400071600E4F79600E4901601160196021606B
:101B50002960316039601020FEF729FC01B0F0BD2A
:101B600000080A40030000B100280A40000887402E
:101B70000088864000480840008810400008104057
:101B800001000026F0B581B0044640B2414E002865
:101B900002D40220306101E0022030600A2528468C
:101BA00000F0EAF801273760284600F0E5F83761D1
:101BB000600602D40220306101E0022030600A2574
:101BC000284600F0D9F83760284600F0D5F837618C
:101BD000A00602D40220306101E0022030600A2514
:101BE000284600F0C9F83760284600F0C5F837618C
:101BF000E00602D40220306101E0022030600A25B4
:101C0000284600F0B9F83760284600F0B5F837618B
:101C1000200702D40220306101E0022030600A2552
:101C2000284600F0A9F83760284600F0A5F837618B
:101C3000600702D40220306101E0022030600A25F2
:101C4000284600F099F83760284600F095F837618B
:101C5000A00702D40220306101E0022030600A2592
:101C6000284600F089F83760284600F085F837618B
:101C7000E00702D10220306101E0022030600A2436
:101C8000204600F079F83760204600F075F837619B
:101C900001B0F0BD90120A4005480068C0B20128AA
:101CA00004D1044800210160034801607047C04628
:101CB000205008406C002020F004202010B512486D
:101CC0000068C0B20B281DD1104A13884348C1696F
:101CD0007E2B12D80E4CE1545B1C13800268D20795
:101CE00008D00268D20705D00268D20702D0026885
:101CF000D207F3D1C9B2816101E00020108005480C
:101D00000121017010BDC0462090104042062020E5
:101D1000C00520204006202003484168C9B2034A7C
:101D2000118001607047C0462011104068002020DB
:101D30007047000080B5FFF7DBFE0120C0030449B7
:101D400008600449086004A0FEF768FA80BDC04638
:101D500080E200E000E100E0426F61726420496EC1
:101D60006974205B5B202A2A204C434B4642202A80
:101D70002A205D5D0D000000B0B50F490B684001E1
:101D8000262206E0E41A0D1F2D686419A21882426B
:101D900010D21C460B68A34208D10B68A34205D1A0
:101DA0000B68A34202D10B68A342F3D09C42E9D94D
:101DB000E41AEBE7B0BDC04618E000E007490A6846
:101DC000D20708D00A68D20705D00A68D20702D025
:101DD0000A68D207F3D1C2B28A61704708911040F5
:101DE000FFF786FEFFF7A6FFFFF74AF8FEF71EFD96
:101DF000FFF7AEFC012000040449086004490860B4
:101E000002200860FEF74AFCFCE7C04680E200E0E2
:101E100000E100E043088B421AD3002203098B4201
:101E200079D3030A8B425ED3030B8B4242D3030C5C
:101E30008B4227D30902FF2212BA030C8B4202D332
:101E40001212090203D0030B8B4233D31AE0D3E002
:101E5000411A8041401C704703460B4371D443082C
:101E60008B42F5D3002203098B4254D3030A8B42E1
:101E700039D3030B8B421DD3030C8B4202D3944600
:101E80006EE0090AC30B8B4201D3CB03C01A524147
:101E9000830B8B4201D38B03C01A5241430B8B42FD
:101EA00001D34B03C01A5241030B8B4201D30B03E6
:101EB000C01A5241C30A8B4201D3CB02C01A52410D
:101EC000830A8B4201D38B02C01A5241430A8B42D0
:101ED00001D34B02C01A5241030A8B4201D30B02B9
:101EE000C01A5241CDD2C3098B4201D3CB01C01AD3
:101EF000524183098B4201D38B01C01A52414309DD
:101F00008B4201D34B01C01A524103098B4201D3CA
:101F10000B01C01A5241C3088B4201D3CB00C01A37
:101F2000524183088B4201D38B00C01A52414308AF
:101F30008B4201D34B00C01A5241411A524110004A
:101F40007047CA0F00D04942031000D340425340AB
:101F500000229C4603098B422DD3030A8B4212D3E5
:101F60008901FC2212BA030A8B420CD38901921117
:101F70008B4208D3890192118B4204D3890137D057
:101F8000921100E08909C3098B4201D3CB01C01A29
:101F9000524183098B4201D38B01C01A524143093C
:101FA0008B4201D34B01C01A524103098B4201D32A
:101FB0000B01C01A5241C3088B4201D3CB00C01A97
:101FC000524183088B4201D38B00C01A5241D9D2AF
:101FD00043088B4201D34B00C01A5241411A00D230
:101FE00001465241104663465B1000D340427047A1
:101FF00063465B1000D3404201B50021004201D08E
:10200000C9430846C046C04602BD000070B5012560
:10201000ED0704004C4020D4441A01D2001B0919DA
:10202000C60D4B00F2B2FF2A29D01B0E2CD00002A5
:102030000C0228432C43D31ADC40051910D2280A7D
:1020400002D3401C6D0611D0761EF6058019FF2ABA
:1020500000DA70BDC00DC00570BD694000F022F807
:1020600001200543C541521C761CE8E764089C40EA
:10207000C90161408900E7D10124A043E4E71B0EB8
:10208000440200D0034870BD002AFCD1C00FC00735
:1020900070BD00BF0000C07F70B50125ED070400D2
:1020A0004C4022D4441A02D26C40001B0919C60DC0
:1020B0004B00F2B2FF2A4BD01B0E50D000020C0294
:1020C000A8432C43D31ADC40051B05D5AD0019D31A
:1020D0006D08761E521E37D0F605280A01D28019E7
:1020E00070BD70416D0603D070BD6940FFF794FF6D
:1020F0009C4009026140490001D0401E70BD01248E
:10210000A04370BD6D081DD001202B0C01D12D0402
:1021100010302B0E01D12D0208302B0F01D12D01D3
:10212000001DAB0F01D1AD00801CEB0F01D16D0084
:10213000401C361A121A6D00680AF5054019012A6A
:1021400002DB70BD002070BDC036300AC00770BD14
:102150001B0E440201D1FF2B00D1024870BD002AA2
:10216000F0D070BD0000C07F08070000A00F000085
:102170000001000008070000A00F0000000100009F
:102180000807FF00020000001A060000010000001E
:102190000000000000000000040000001800000023
:1021A00000300000080000001800000000300000AF
:1021B000D0210000000020200800000020010000C5
:1021C000D82100000800202040070000480100003E
:0821D000800C0000000000007B
:04000005000000C136
:00000001FF
