:020000040000FA
:10000000080820207D010000810100008905000012
:1000100000000000000000000000000000000000E0
:10002000000000000000000000000000850100004A
:1000300000000000000000008701000089010000AE
:100040008B010000250500008B0100008B010000E2
:100050008B0100008B0100008B0100008B01000070
:10006000000000008B0100008B0100000000000078
:1000700000000000511A00008B010000F51900007B
:10008000D11900008B0100008B0100008B010000E2
:100090008B0100008B010000000000000000000048
:1000A0008B0100008B010000000000000000000038
:1000B0008B010000000000008B0100008B0100009C
:1000C00000F002F800F04AF812A030C808382418EE
:1000D0002D18AC4201D100F041F80FCCA246AB463E
:1000E0000CA730CF2D1B083F3F197C427F1E544484
:1000F0002D090426F441641EAC4201D300F02EF811
:100100000126334200D0FB1A3343984754465D46DC
:10011000DFE70000D41A0000E41A0000000000002D
:100120007047000000000000002300240025002686
:10013000103A01D378C1FBD8520700D330C100D5A3
:100140000B60704710B5732902D100F083F810BD21
:10015000002010BD1FB51FBD10B510BD00F07EF80A
:100160001146FFF7F7FF01F001FD00F096F803B428
:10017000FFF7F2FF03BC01F0A1FC000006480047B6
:10018000FEE7FEE7FEE7FEE7FEE7FEE70348044979
:10019000024A044B70470000C100000008072020FD
:1001A000080820200807202070B50C460546012AC3
:1001B00005D02878800600D5EA69002302E00123F3
:1001C00005E05B1C934202D2E05C0028F9D1A869EB
:1001D000E618C01AA861286AC01828622846C046D6
:1001E000C04604E06A682078A968641C9047B4425D
:1001F000F8D32846C046C04670BD000010B504467E
:1002000003E001F0A1FC401C08D020780549641CE3
:100210000028F6D10A2001F097FC10BD0020C04351
:1002200010BD0000E804202070477047704710B5EB
:100230004369002B02D0C046C04601E0FFF7B4FF7F
:10024000012010BD1278014624310A7000224A7044
:100250000122ECE711680022D243E8E7754600F07E
:1002600025F8AE46050069465346C008C0008546DD
:1002700018B020B5FFF78AFF60BCB64600260027FD
:10028000C0C5C0C5C0C5C0C5C0C5C0C5C0C5C0C546
:10029000403D490849008D46704710B50446C046A8
:1002A000C0462046FFF763FF10BD000000487047BE
:1002B00000002020811E091F00BFFCD270470000F3
:1002C000F0B5664A8218294BC318087920280DD04A
:1002D00000281DD10C68641E5460D56E244C254046
:1002E0008835D5661646703688251DE00C68641E74
:1002F0005460D46E1E4D2C401E4EA419D466146F4B
:100300002C40A4191467012465071B4C16460BE00A
:100310000C6864085460D66E154C26400525ED0126
:100320007619D66616467036376827402F433760F1
:10033000D46A4C4D2C40D462146B2C4014630024BE
:10034000D46414658F24E443D56F2540D5671D68B8
:1003500025401D6049790143BD2008401168074BC5
:100360000B40C018801C1060F0BDC046841800000F
:1003700024F93FF001040000FFFFFFCF4000FFCF52
:10038000B0B5364A80184A6842600A78222A57D89F
:10039000930001A4E3589F46370400004104000085
:1003A0003704000041040000410400004104000043
:1003B0004104000041040000410400004104000029
:1003C0004104000041040000410400004104000019
:1003D0004104000041040000250400004104000025
:1003E0002504000041040000410400004104000015
:1003F00041040000410400004104000041040000E9
:1004000041040000410400004104000041040000D8
:1004100041040000410400002504000041040000E4
:100420002504000003231B0704689C4301235B078A
:10043000E318036004E003231B0704689C43046083
:100440000B69C360CB68064C1C40C36A054D1D4058
:100450002B19C362097A11430160B0BD0418000072
:10046000777702008888FDFF10B507239B041940A9
:1004700092008018024A84589C436118815010BD34
:100480003018000010B5029CA40000191143194354
:10049000014A815010BDC0465018000092008018DB
:1004A000014A81507047C0461018000010B5012263
:1004B000120383180C789C604B7883508978014A2A
:1004C000815010BD0C110000B0B5112212028358EA
:1004D0000124A34383508B780C881C438B882343CF
:1004E000094C1C408358094D1D402B1983508B79B2
:1004F000CC791C43097A21437E2319408018426835
:100500009A4351184160B0BD18670000E798FDFF9D
:1005100010B50122120383180C789C604978815031
:1005200010BD0000F0B50020C14313480246103A48
:1005300013689A05114A02D45B070FD4F0BD012558
:100540006C021668F60500D50D460D4E37687D190C
:1005500035600568254305605B07EFD51268120713
:1005600000D40121074A1368591811600168042258
:100570000A430260F0BDC04648300A4080330A405A
:10058000E40420206000202080B502A0FFF736FEA2
:1005900080BDC046656E747279204572726F72219B
:1005A0002121210D00000000B0B502480346F833B8
:1005B000802401E064002020002119701A46083AC6
:1005C00011701A46103A11701A46183A11701A46EC
:1005D000203A11701A46283A11701A46303A1170B2
:1005E0001A46383A11701A46403A11701A46483A7B
:1005F00011701A46503A11701A46583A11701A463C
:10060000603A11701A46683A11701A46703A1170C1
:100610001A46783A11701A46803A11701A46883A8A
:1006200011701A46903A11701A46983A11701A468B
:10063000A03A11701A46A83A11701A46B03A1170D1
:100640001A46B83A11701A46C03A11701A46C83A9A
:1006500011701A46D03A11701A46D83A11701A46DB
:10066000E03A11701A46E83A11701A46F03A1170E1
:100670001A46F83A1170012212029B18203C9BD1B5
:100680000446F934802321702546083D297025460B
:10069000103D29702546183D29702546203D2970BA
:1006A0002546283D29702546303D29702546383D90
:1006B00029702546403D29702546483D297025462C
:1006C000503D29702546583D29702546603D2970CA
:1006D0002546683D29702546703D29702546783DA0
:1006E00029702546803D29702546883D297025467C
:1006F000903D29702546983D29702546A03D2970DA
:100700002546A83D29702546B03D29702546B83DAF
:1007100029702546C03D29702546C83D29702546CB
:10072000D03D29702546D83D29702546E03D2970E9
:100730002546E83D29702546F03D2970A518F83C6E
:100740002170203B2C469ED10446FA348023217030
:100750002546083D29702546103D29702546183D3F
:1007600029702546203D29702546283D29702546BB
:10077000303D29702546383D29702546403D297079
:100780002546483D29702546503D29702546583D4F
:1007900029702546603D29702546683D297025460B
:1007A000703D29702546783D29702546803D297089
:1007B0002546883D29702546903D29702546983D5F
:1007C00029702546A03D29702546A83D297025465B
:1007D000B03D29702546B83D29702546C03D297099
:1007E0002546C83D29702546D03D29702546D83D6F
:1007F00029702546E03D29702546E83D29702546AB
:10080000F03D2970A518F83C2170203B2C469ED164
:100810000446FB34802321702546083D2970254677
:10082000103D29702546183D29702546203D297028
:100830002546283D29702546303D29702546383DFE
:1008400029702546403D29702546483D297025469A
:10085000503D29702546583D29702546603D297038
:100860002546683D29702546703D29702546783D0E
:1008700029702546803D29702546883D29702546EA
:10088000903D29702546983D29702546A03D297048
:100890002546A83D29702546B03D29702546B83D1E
:1008A00029702546C03D29702546C83D297025463A
:1008B000D03D29702546D83D29702546E03D297058
:1008C0002546E83D29702546F03D2970A518F83CDD
:1008D0002170203B2C469ED10446FC34802321709D
:1008E0002546083D29702546103D29702546183DAE
:1008F00029702546203D29702546283D297025462A
:10090000303D29702546383D29702546403D2970E7
:100910002546483D29702546503D29702546583DBD
:1009200029702546603D29702546683D2970254679
:10093000703D29702546783D29702546803D2970F7
:100940002546883D29702546903D29702546983DCD
:1009500029702546A03D29702546A83D29702546C9
:10096000B03D29702546B83D29702546C03D297007
:100970002546C83D29702546D03D29702546D83DDD
:1009800029702546E03D29702546E83D2970254619
:10099000F03D2970A518F83C2170203B2C469ED1D3
:1009A0000446FD34802321702546083D29702546E4
:1009B000103D29702546183D29702546203D297097
:1009C0002546283D29702546303D29702546383D6D
:1009D00029702546403D29702546483D2970254609
:1009E000503D29702546583D29702546603D2970A7
:1009F0002546683D29702546703D29702546783D7D
:100A000029702546803D29702546883D2970254658
:100A1000903D29702546983D29702546A03D2970B6
:100A20002546A83D29702546B03D29702546B83D8C
:100A300029702546C03D29702546C83D29702546A8
:100A4000D03D29702546D83D29702546E03D2970C6
:100A50002546E83D29702546F03D2970A518F83C4B
:100A60002170203B2C469ED10446FE348023217009
:100A70002546083D29702546103D29702546183D1C
:100A800029702546203D29702546283D2970254698
:100A9000303D29702546383D29702546403D297056
:100AA0002546483D29702546503D29702546583D2C
:100AB00029702546603D29702546683D29702546E8
:100AC000703D29702546783D29702546803D297066
:100AD0002546883D29702546903D29702546983D3C
:100AE00029702546A03D29702546A83D2970254638
:100AF000B03D29702546B83D29702546C03D297076
:100B00002546C83D29702546D03D29702546D83D4B
:100B100029702546E03D29702546E83D2970254687
:100B2000F03D2970A518F83C2170203B2C469ED141
:100B3000FF30802301700446083C21700446103CBD
:100B400021700446183C21700446203C2170044664
:100B5000283C21700446303C21700446383C21700A
:100B60000446403C21700446483C21700446503CF9
:100B700021700446583C21700446603C21700446B4
:100B8000683C21700446703C21700446783C21701A
:100B90000446803C21700446883C21700446903C09
:100BA00021700446983C21700446A03C2170044604
:100BB000A83C21700446B03C21700446B83C21702A
:100BC0000446C03C21700446C83C21700446D03C19
:100BD00021700446D83C21700446E03C2170044654
:100BE000E83C21700446F03C21708418F83801700C
:100BF000203B20469ED100F09FFBB0BDF0B581B0F8
:100C0000AE200024214600F011FC2046214600F0D1
:100C10000DFC1020214600F009FC402738462146F3
:100C200000F004FC8120214600F000FCCF2021468A
:100C300000F0FCFBA120214600F0F8FBC820214673
:100C400000F0F4FBA6263046214600F0EFFBA8207A
:100C5000214600F0EBFB3F20214600F0E7FBD320CC
:100C6000214600F0E3FB2046214600F0DFFBD520C3
:100C7000214600F0DBFB80252846214600F0D6FB0C
:100C8000D920214600F0D2FBF120214600F0CEFB16
:100C9000DA20214600F0CAFB1220214600F0C6FBF4
:100CA000DB20214600F0C2FB3846214600F0BEFBA7
:100CB0002020214600F0BAFB0220214600F0B6FBBE
:100CC0008D20214600F0B2FB1420214600F0AEFB3F
:100CD000A420214600F0AAFB3046214600F0A6FBE6
:100CE00001480246F83201E06400202014701146E9
:100CF00008390C70114610390C70114618390C70F7
:100D0000114620390C70114628390C7011463039C3
:100D10000C70114638390C70114640390C70114670
:100D200048390C70114650390C70114658390C7006
:100D3000114660390C70114668390C7011467039D3
:100D40000C70114678390C70114680390C701146C0
:100D500088390C70114690390C70114698390C7016
:100D60001146A0390C701146A8390C701146B039E3
:100D70000C701146B8390C701146C0390C70114610
:100D8000C8390C701146D0390C701146D8390C7026
:100D90001146E0390C701146E8390C701146F039F3
:100DA0000C701146F8390C70012109025218203DCF
:100DB0009CD10346F93380221C701D46083D2C70DF
:100DC0001D46103D2C701D46183D2C701D46203DC3
:100DD0002C701D46283D2C701D46303D2C701D4644
:100DE000383D2C701D46403D2C701D46483D2C70F2
:100DF0001D46503D2C701D46583D2C701D46603DD3
:100E00002C701D46683D2C701D46703D2C701D4693
:100E1000783D2C701D46803D2C701D46883D2C7001
:100E20001D46903D2C701D46983D2C701D46A03DE2
:100E30002C701D46A83D2C701D46B03D2C701D46E3
:100E4000B83D2C701D46C03D2C701D46C83D2C7011
:100E50001D46D03D2C701D46D83D2C701D46E03DF2
:100E60002C701D46E83D2C701D46F03D2C705D1821
:100E7000F83B1C70203A2B469ED10346FA33802261
:100E80001C701D46083D2C701D46103D2C701D46E3
:100E9000183D2C701D46203D2C701D46283D2C70A1
:100EA0001D46303D2C701D46383D2C701D46403D82
:100EB0002C701D46483D2C701D46503D2C701D4623
:100EC000583D2C701D46603D2C701D46683D2C70B1
:100ED0001D46703D2C701D46783D2C701D46803D92
:100EE0002C701D46883D2C701D46903D2C701D4673
:100EF000983D2C701D46A03D2C701D46A83D2C70C1
:100F00001D46B03D2C701D46B83D2C701D46C03DA1
:100F10002C701D46C83D2C701D46D03D2C701D46C2
:100F2000D83D2C701D46E03D2C701D46E83D2C70D0
:100F30001D46F03D2C705D18F83B1C70203A2B4686
:100F40009ED10346FB3380221C701D46083D2C7049
:100F50001D46103D2C701D46183D2C701D46203D31
:100F60002C701D46283D2C701D46303D2C701D46B2
:100F7000383D2C701D46403D2C701D46483D2C7060
:100F80001D46503D2C701D46583D2C701D46603D41
:100F90002C701D46683D2C701D46703D2C701D4602
:100FA000783D2C701D46803D2C701D46883D2C7070
:100FB0001D46903D2C701D46983D2C701D46A03D51
:100FC0002C701D46A83D2C701D46B03D2C701D4652
:100FD000B83D2C701D46C03D2C701D46C83D2C7080
:100FE0001D46D03D2C701D46D83D2C701D46E03D61
:100FF0002C701D46E83D2C701D46F03D2C705D1890
:10100000F83B1C70203A2B469ED10346FC338022CD
:101010001C701D46083D2C701D46103D2C701D4651
:10102000183D2C701D46203D2C701D46283D2C700F
:101030001D46303D2C701D46383D2C701D46403DF0
:101040002C701D46483D2C701D46503D2C701D4691
:10105000583D2C701D46603D2C701D46683D2C701F
:101060001D46703D2C701D46783D2C701D46803D00
:101070002C701D46883D2C701D46903D2C701D46E1
:10108000983D2C701D46A03D2C701D46A83D2C702F
:101090001D46B03D2C701D46B83D2C701D46C03D10
:1010A0002C701D46C83D2C701D46D03D2C701D4631
:1010B000D83D2C701D46E03D2C701D46E83D2C703F
:1010C0001D46F03D2C705D18F83B1C70203A2B46F5
:1010D0009ED10346FD3380221C701D46083D2C70B6
:1010E0001D46103D2C701D46183D2C701D46203DA0
:1010F0002C701D46283D2C701D46303D2C701D4621
:10110000383D2C701D46403D2C701D46483D2C70CE
:101110001D46503D2C701D46583D2C701D46603DAF
:101120002C701D46683D2C701D46703D2C701D4670
:10113000783D2C701D46803D2C701D46883D2C70DE
:101140001D46903D2C701D46983D2C701D46A03DBF
:101150002C701D46A83D2C701D46B03D2C701D46C0
:10116000B83D2C701D46C03D2C701D46C83D2C70EE
:101170001D46D03D2C701D46D83D2C701D46E03DCF
:101180002C701D46E83D2C701D46F03D2C705D18FE
:10119000F83B1C70203A2B469ED10346FE3380223A
:1011A0001C701D46083D2C701D46103D2C701D46C0
:1011B000183D2C701D46203D2C701D46283D2C707E
:1011C0001D46303D2C701D46383D2C701D46403D5F
:1011D0002C701D46483D2C701D46503D2C701D4600
:1011E000583D2C701D46603D2C701D46683D2C708E
:1011F0001D46703D2C701D46783D2C701D46803D6F
:101200002C701D46883D2C701D46903D2C701D464F
:10121000983D2C701D46A03D2C701D46A83D2C709D
:101220001D46B03D2C701D46B83D2C701D46C03D7E
:101230002C701D46C83D2C701D46D03D2C701D469F
:10124000D83D2C701D46E03D2C701D46E83D2C70AD
:101250001D46F03D2C705D18F83B1C70203A2B4663
:101260009ED1FF30802204700346083B1C70034669
:10127000103B1C700346183B1C700346203B1C703F
:101280000346283B1C700346303B1C700346383B2A
:101290001C700346403B1C700346483B1C700346D1
:1012A000503B1C700346583B1C700346603B1C704F
:1012B0000346683B1C700346703B1C700346783B3A
:1012C0001C700346803B1C700346883B1C70034621
:1012D000903B1C700346983B1C700346A03B1C705F
:1012E0000346A83B1C700346B03B1C700346B83B4A
:1012F0001C700346C03B1C700346C83B1C70034671
:10130000D03B1C700346D83B1C700346E03B1C706E
:101310000346E83B1C700346F03B1C704318F8384A
:101320000470203A18469ED100F006F8AF20002144
:1013300000F07CF801B0F0BDF0B585B000203A4F68
:1013400002905038C0B20024214600F06FF82046C9
:10135000214600F06BF81020214600F067F80225C6
:1013600059480560012606600A24204600F0CAFBA1
:1013700055480561204600F0C5FB534806612046EC
:1013800000F0C0FB782000F099FA4F480560204635
:1013900000F0B8FB4C480660204600F0B3FB4A481A
:1013A0000661204600F0AEFB402000F087FA04956D
:1013B00045480560204600F0A5FB43480660054609
:1013C000204600F09FFB03962E61204600F09AFB1A
:1013D00080260197387800F071FA3B49049808603C
:1013E0000A24204600F08EFB039D37480560204606
:1013F00000F088FB34480561204600F083FB761E30
:101400000837002EE6D1304C049D256103982060FA
:101410000A2000F077FB2560019F7F1C0298401C8A
:1014200008288DD105B0F0BD64002020F0B583B050
:1014300001910290244F02263E6001253D600A245E
:10144000204600F05FFB3E61204600F05BFB3D6103
:10145000204600F057FB782000F030FA3E6020462E
:1014600000F050FB3D60204600F04CFB3D61204603
:1014700000F048FB0199481E8141880100F01EFAE6
:101480003E60204600F03EFB3D60204600F03AFB07
:101490003D61204600F036FB029800F00FFA3E60F6
:1014A000204600F02FFB3D60204600F02BFB3D6105
:1014B000204600F027FB3E613D60204600F022FB05
:1014C0003E6003B0F0BDC04690120A4080B500F007
:1014D000ABF901204003024908600249086080BD61
:1014E00080E200E000E100E070B5284B8520186044
:1014F0000124A003264908608420D864600608609F
:1015000086209862600508608820D862A00508607F
:10151000204D82222A652048461C6E65AA64EE642E
:101520001E4A1A661E4A1A6181222A606A60A863EE
:10153000E8636866286658621862186318640B4688
:10154000303BE4061C600B46403B03251D60E31C5A
:101550000B6014490B6810241C430C600146813950
:10156000114B1C6A0C431C621C680C431C607138D4
:101570000E490B6803430B6090000D490A6A024351
:101580000A620A6802430A6070BDC0469080424009
:10159000D0120A4004804240810004008100010012
:1015A00081000500A0130A4028100A4090330A4029
:1015B00028300A40F0B581B0194C1A492046FEF790
:1015C00075FF19492046FEF77BFE00250095204651
:1015D00029462A462B46FEF755FF204629462A462D
:1015E000FEF742FF304E204631462A46FEF756FFB0
:1015F00001270097204629462A462B46FEF742FF40
:10160000204629463A46FEF72FFF204631463A4605
:10161000FEF744FF054887600321016001B0F0BD7B
:10162000008086409C1B0000A01B000000918640AB
:10163000F0B581B0194C1A492046FEF737FF194919
:101640002046FEF73DFE00250095204629462A4605
:101650002B46FEF717FF204629462A46FEF704FFD1
:10166000114E204631462A46FEF718FF0127009703
:10167000204629462A462B46FEF704FF20462946E7
:101680003A46FEF7F1FE204631463A46FEF706FF9F
:10169000064887600321016001B0F0BD000087406B
:1016A000A81B0000AC1B0000AF0400000011874025
:1016B0000C48002101600320C1430B480246083A50
:1016C00013680B401360016801229143016011020D
:1016D00003688B4303601103001F02680A43026022
:1016E0007047C04608030B4008010B400548042121
:1016F00001601F21416000218160016805220A43C9
:101700000260704710E000E010B5084C0849204620
:10171000FEF7CCFE07492046FEF732FE0648016878
:101720000122114301600548026010BD00400840DD
:10173000B41B0000B81B00002850084008510840A6
:10174000B0B5174C17492046FEF7E2FE1649204671
:10175000FEF7BAFE0320C103144802688A43026000
:1017600002692F490A40921C026142690B2313430C
:1017700034229343436143680122134044689443F5
:10178000E318436093020A4C25681D432560FF312E
:10179000084B1C680C401C60016811430160B0BD1F
:1017A00000001040CC1B0000CE1B000000111040B8
:1017B000281010400CE400E010B5154C15492046E7
:1017C000FEF7A6FE14492046FEF77EFE0320C10365
:1017D000124802688A4302600169114A0A401132C4
:1017E0000261416917220A4328218A434261416804
:1017F0000122114043689343591841609102094BFB
:101800001C680C431C6001681143016010BDC04698
:1018100000801040D81B0000DA1B0000009110402F
:101820000000FFFF2890104080B500F017F8FFF788
:101830005BFEFFF73DFFFFF7FBFEFFF7BBFEFFF789
:1018400063FFFFF7B9FFFFF77BFFFFF74FFF742040
:10185000014900220A5480BD40052020F0B581B026
:101860000D480E4941600E4A51600E4B59600E4CB6
:1018700061600E4D69600E4E71600E4F79600E49C9
:1018800001601160196021602960316039601020A9
:10189000FEF710FD01B0F0BD00080A40030000B1E2
:1018A00000280A4000088740008886400048084019
:1018B000008810400008104001000026F0B581B0FB
:1018C000044640B2414E002802D40220306101E0BB
:1018D000022030600A25284600F014F901273760FD
:1018E000284600F00FF93761600602D4022030610B
:1018F00001E0022030600A25284600F003F9376035
:10190000284600F0FFF83761A00602D402203061BB
:1019100001E0022030600A25284600F0F3F8376025
:10192000284600F0EFF83761E00602D4022030616B
:1019300001E0022030600A25284600F0E3F8376015
:10194000284600F0DFF83761200702D4022030611A
:1019500001E0022030600A25284600F0D3F8376005
:10196000284600F0CFF83761600702D402203061CA
:1019700001E0022030600A25284600F0C3F83760F5
:10198000284600F0BFF83761A00702D4022030617A
:1019900001E0022030600A25284600F0B3F83760E5
:1019A000284600F0AFF83761E00702D1022030612D
:1019B00001E0022030600A24204600F0A3F83760DE
:1019C000204600F09FF8376101B0F0BD90120A4048
:1019D00005480068C0B2012804D104480021016014
:1019E000034801607047C046205008406000202036
:1019F000E404202010B512480068C0B20B281DD1A5
:101A0000104A13885848C1697E2B12D80E4CE154F5
:101A10005B1C13800268D20708D00268D20705D089
:101A20000268D20702D00268D207F3D1C9B281613D
:101A300001E00020108005480121017010BDC04662
:101A40002090104006072020840620200407202034
:101A500010B515480068C0B20B2812D113480068B1
:101A6000C1B213480278012A03D15B2901D05D2954
:101A700008D1104A1268002A0BD15B2909D1012133
:101A8000017010BD0B4A13680B4CE1545B1C1360D2
:101A900012685D29F5D100210170064801600648F1
:101AA000FEF7ACFB10BDC0462010104024111040C2
:101AB0003C05202080062020B8052020704700002B
:101AC00080B5FFF7B1FE0120C00304490860044956
:101AD000086004A0FEF792FB80BDC04680E200E0F3
:101AE00000E100E0426F61726420496E6974205B1E
:101AF0005B202A2A204C434B4642202A2A205D5D47
:101B00000D000000B0B50F490B684001262206E029
:101B1000E41A0D1F2D686419A218824210D21C46C7
:101B20000B68A34208D10B68A34205D10B68A342FE
:101B300002D10B68A342F3D09C42E9D9E41AEBE747
:101B4000B0BDC04618E000E007490A68D20708D0D7
:101B50000A68D20705D00A68D20702D00A68D207FD
:101B6000F3D1C2B28A61704708911040FFF75CFE62
:101B7000FFF7A6FFFFF742F8FEF716FDFFF7A6FCFA
:101B8000012000040349086003490860022008603E
:101B9000FEE7C04680E200E000E100E00807000048
:101BA000A00F00000001000008070000A00F0000C7
:101BB000000100000807FF00020000001A060000F4
:101BC0000100000000000000000000000400000010
:101BD000180000000030000008000000180000009D
:101BE0000030000000000000F81B00000000202072
:081BF0000808000028010000B4
:04000005000000C136
:00000001FF
